{
    "contractName": "meTokens",
    "abi": [
        {
            "inputs": [],
            "stateMutability": "nonpayable",
            "type": "constructor"
        },
        {
            "anonymous": false,
            "inputs": [
                {
                    "indexed": true,
                    "internalType": "address",
                    "name": "owner",
                    "type": "address"
                },
                {
                    "indexed": true,
                    "internalType": "address",
                    "name": "spender",
                    "type": "address"
                },
                {
                    "indexed": false,
                    "internalType": "uint256",
                    "name": "value",
                    "type": "uint256"
                }
            ],
            "name": "Approval",
            "type": "event"
        },
        {
            "anonymous": false,
            "inputs": [
                {
                    "indexed": true,
                    "internalType": "address",
                    "name": "delegator",
                    "type": "address"
                },
                {
                    "indexed": true,
                    "internalType": "address",
                    "name": "fromDelegate",
                    "type": "address"
                },
                {
                    "indexed": true,
                    "internalType": "address",
                    "name": "toDelegate",
                    "type": "address"
                }
            ],
            "name": "DelegateChanged",
            "type": "event"
        },
        {
            "anonymous": false,
            "inputs": [
                {
                    "indexed": true,
                    "internalType": "address",
                    "name": "delegate",
                    "type": "address"
                },
                {
                    "indexed": false,
                    "internalType": "uint256",
                    "name": "previousBalance",
                    "type": "uint256"
                },
                {
                    "indexed": false,
                    "internalType": "uint256",
                    "name": "newBalance",
                    "type": "uint256"
                }
            ],
            "name": "DelegateVotesChanged",
            "type": "event"
        },
        {
            "anonymous": false,
            "inputs": [
                {
                    "indexed": true,
                    "internalType": "address",
                    "name": "previousOwner",
                    "type": "address"
                },
                {
                    "indexed": true,
                    "internalType": "address",
                    "name": "newOwner",
                    "type": "address"
                }
            ],
            "name": "OwnershipTransferred",
            "type": "event"
        },
        {
            "anonymous": false,
            "inputs": [
                {
                    "indexed": true,
                    "internalType": "address",
                    "name": "from",
                    "type": "address"
                },
                {
                    "indexed": true,
                    "internalType": "address",
                    "name": "to",
                    "type": "address"
                },
                {
                    "indexed": false,
                    "internalType": "uint256",
                    "name": "value",
                    "type": "uint256"
                }
            ],
            "name": "Transfer",
            "type": "event"
        },
        {
            "inputs": [],
            "name": "DELEGATION_TYPEHASH",
            "outputs": [
                {
                    "internalType": "bytes32",
                    "name": "",
                    "type": "bytes32"
                }
            ],
            "stateMutability": "view",
            "type": "function"
        },
        {
            "inputs": [],
            "name": "DOMAIN_TYPEHASH",
            "outputs": [
                {
                    "internalType": "bytes32",
                    "name": "",
                    "type": "bytes32"
                }
            ],
            "stateMutability": "view",
            "type": "function"
        },
        {
            "inputs": [],
            "name": "_totalSupply",
            "outputs": [
                {
                    "internalType": "uint256",
                    "name": "",
                    "type": "uint256"
                }
            ],
            "stateMutability": "view",
            "type": "function"
        },
        {
            "inputs": [
                {
                    "internalType": "address",
                    "name": "owner",
                    "type": "address"
                },
                {
                    "internalType": "address",
                    "name": "spender",
                    "type": "address"
                }
            ],
            "name": "allowance",
            "outputs": [
                {
                    "internalType": "uint256",
                    "name": "",
                    "type": "uint256"
                }
            ],
            "stateMutability": "view",
            "type": "function"
        },
        {
            "inputs": [
                {
                    "internalType": "address",
                    "name": "spender",
                    "type": "address"
                },
                {
                    "internalType": "uint256",
                    "name": "amount",
                    "type": "uint256"
                }
            ],
            "name": "approve",
            "outputs": [
                {
                    "internalType": "bool",
                    "name": "",
                    "type": "bool"
                }
            ],
            "stateMutability": "nonpayable",
            "type": "function"
        },
        {
            "inputs": [
                {
                    "internalType": "address",
                    "name": "account",
                    "type": "address"
                }
            ],
            "name": "balanceOf",
            "outputs": [
                {
                    "internalType": "uint256",
                    "name": "",
                    "type": "uint256"
                }
            ],
            "stateMutability": "view",
            "type": "function"
        },
        {
            "inputs": [
                {
                    "internalType": "uint256",
                    "name": "amount",
                    "type": "uint256"
                }
            ],
            "name": "burn",
            "outputs": [],
            "stateMutability": "nonpayable",
            "type": "function"
        },
        {
            "inputs": [
                {
                    "internalType": "address",
                    "name": "account",
                    "type": "address"
                },
                {
                    "internalType": "uint256",
                    "name": "amount",
                    "type": "uint256"
                }
            ],
            "name": "burnFrom",
            "outputs": [],
            "stateMutability": "nonpayable",
            "type": "function"
        },
        {
            "inputs": [
                {
                    "internalType": "address",
                    "name": "",
                    "type": "address"
                },
                {
                    "internalType": "uint32",
                    "name": "",
                    "type": "uint32"
                }
            ],
            "name": "checkpoints",
            "outputs": [
                {
                    "internalType": "uint32",
                    "name": "fromBlock",
                    "type": "uint32"
                },
                {
                    "internalType": "uint256",
                    "name": "votes",
                    "type": "uint256"
                }
            ],
            "stateMutability": "view",
            "type": "function"
        },
        {
            "inputs": [],
            "name": "decimals",
            "outputs": [
                {
                    "internalType": "uint8",
                    "name": "",
                    "type": "uint8"
                }
            ],
            "stateMutability": "view",
            "type": "function"
        },
        {
            "inputs": [
                {
                    "internalType": "address",
                    "name": "spender",
                    "type": "address"
                },
                {
                    "internalType": "uint256",
                    "name": "subtractedValue",
                    "type": "uint256"
                }
            ],
            "name": "decreaseAllowance",
            "outputs": [
                {
                    "internalType": "bool",
                    "name": "",
                    "type": "bool"
                }
            ],
            "stateMutability": "nonpayable",
            "type": "function"
        },
        {
            "inputs": [
                {
                    "internalType": "address",
                    "name": "delegatee",
                    "type": "address"
                }
            ],
            "name": "delegate",
            "outputs": [],
            "stateMutability": "nonpayable",
            "type": "function"
        },
        {
            "inputs": [
                {
                    "internalType": "address",
                    "name": "delegatee",
                    "type": "address"
                },
                {
                    "internalType": "uint256",
                    "name": "nonce",
                    "type": "uint256"
                },
                {
                    "internalType": "uint256",
                    "name": "expiry",
                    "type": "uint256"
                },
                {
                    "internalType": "uint8",
                    "name": "v",
                    "type": "uint8"
                },
                {
                    "internalType": "bytes32",
                    "name": "r",
                    "type": "bytes32"
                },
                {
                    "internalType": "bytes32",
                    "name": "s",
                    "type": "bytes32"
                }
            ],
            "name": "delegateBySig",
            "outputs": [],
            "stateMutability": "nonpayable",
            "type": "function"
        },
        {
            "inputs": [
                {
                    "internalType": "address",
                    "name": "delegator",
                    "type": "address"
                }
            ],
            "name": "delegates",
            "outputs": [
                {
                    "internalType": "address",
                    "name": "",
                    "type": "address"
                }
            ],
            "stateMutability": "view",
            "type": "function"
        },
        {
            "inputs": [
                {
                    "internalType": "address",
                    "name": "account",
                    "type": "address"
                }
            ],
            "name": "getCurrentVotes",
            "outputs": [
                {
                    "internalType": "uint256",
                    "name": "",
                    "type": "uint256"
                }
            ],
            "stateMutability": "view",
            "type": "function"
        },
        {
            "inputs": [
                {
                    "internalType": "address",
                    "name": "account",
                    "type": "address"
                },
                {
                    "internalType": "uint256",
                    "name": "blockNumber",
                    "type": "uint256"
                }
            ],
            "name": "getPriorVotes",
            "outputs": [
                {
                    "internalType": "uint256",
                    "name": "",
                    "type": "uint256"
                }
            ],
            "stateMutability": "view",
            "type": "function"
        },
        {
            "inputs": [
                {
                    "internalType": "address",
                    "name": "spender",
                    "type": "address"
                },
                {
                    "internalType": "uint256",
                    "name": "addedValue",
                    "type": "uint256"
                }
            ],
            "name": "increaseAllowance",
            "outputs": [
                {
                    "internalType": "bool",
                    "name": "",
                    "type": "bool"
                }
            ],
            "stateMutability": "nonpayable",
            "type": "function"
        },
        {
            "inputs": [
                {
                    "internalType": "address",
                    "name": "_to",
                    "type": "address"
                },
                {
                    "internalType": "uint256",
                    "name": "_amount",
                    "type": "uint256"
                }
            ],
            "name": "mint",
            "outputs": [],
            "stateMutability": "nonpayable",
            "type": "function"
        },
        {
            "inputs": [],
            "name": "mintingAllowedAfter",
            "outputs": [
                {
                    "internalType": "uint256",
                    "name": "",
                    "type": "uint256"
                }
            ],
            "stateMutability": "view",
            "type": "function"
        },
        {
            "inputs": [],
            "name": "name",
            "outputs": [
                {
                    "internalType": "string",
                    "name": "",
                    "type": "string"
                }
            ],
            "stateMutability": "view",
            "type": "function"
        },
        {
            "inputs": [
                {
                    "internalType": "address",
                    "name": "",
                    "type": "address"
                }
            ],
            "name": "nonces",
            "outputs": [
                {
                    "internalType": "uint256",
                    "name": "",
                    "type": "uint256"
                }
            ],
            "stateMutability": "view",
            "type": "function"
        },
        {
            "inputs": [
                {
                    "internalType": "address",
                    "name": "",
                    "type": "address"
                }
            ],
            "name": "numCheckpoints",
            "outputs": [
                {
                    "internalType": "uint32",
                    "name": "",
                    "type": "uint32"
                }
            ],
            "stateMutability": "view",
            "type": "function"
        },
        {
            "inputs": [],
            "name": "owner",
            "outputs": [
                {
                    "internalType": "address",
                    "name": "",
                    "type": "address"
                }
            ],
            "stateMutability": "view",
            "type": "function"
        },
        {
            "inputs": [],
            "name": "renounceOwnership",
            "outputs": [],
            "stateMutability": "nonpayable",
            "type": "function"
        },
        {
            "inputs": [],
            "name": "symbol",
            "outputs": [
                {
                    "internalType": "string",
                    "name": "",
                    "type": "string"
                }
            ],
            "stateMutability": "view",
            "type": "function"
        },
        {
            "inputs": [],
            "name": "totalSupply",
            "outputs": [
                {
                    "internalType": "uint256",
                    "name": "",
                    "type": "uint256"
                }
            ],
            "stateMutability": "view",
            "type": "function"
        },
        {
            "inputs": [
                {
                    "internalType": "address",
                    "name": "recipient",
                    "type": "address"
                },
                {
                    "internalType": "uint256",
                    "name": "amount",
                    "type": "uint256"
                }
            ],
            "name": "transfer",
            "outputs": [
                {
                    "internalType": "bool",
                    "name": "",
                    "type": "bool"
                }
            ],
            "stateMutability": "nonpayable",
            "type": "function"
        },
        {
            "inputs": [
                {
                    "internalType": "address",
                    "name": "sender",
                    "type": "address"
                },
                {
                    "internalType": "address",
                    "name": "recipient",
                    "type": "address"
                },
                {
                    "internalType": "uint256",
                    "name": "amount",
                    "type": "uint256"
                }
            ],
            "name": "transferFrom",
            "outputs": [
                {
                    "internalType": "bool",
                    "name": "",
                    "type": "bool"
                }
            ],
            "stateMutability": "nonpayable",
            "type": "function"
        },
        {
            "inputs": [
                {
                    "internalType": "address",
                    "name": "newOwner",
                    "type": "address"
                }
            ],
            "name": "transferOwnership",
            "outputs": [],
            "stateMutability": "nonpayable",
            "type": "function"
        }
    ],
    "bytecode": "608060405269d3c21bcecceda10000006006553480156200001f57600080fd5b5060408051808201825260088152676d65546f6b656e7360c01b6020808301918252835180850190945260028452614d4560f01b9084015281519192916200006a9160039162000770565b5080516200008090600490602084019062000770565b50506005805460ff191660121790555060006200009c62000116565b60058054610100600160a81b0319166101006001600160a01b03841690810291909117909155604051919250906000907f8be0079c531659141344cd1fd0a4f28419497f9722a3daafe3b4186f6b6457e0908290a35062000106336006546200011a60201b60201c565b6301e1338042016008556200080c565b3390565b6200012462000116565b6001600160a01b03166200013762000211565b6001600160a01b03161462000193576040805162461bcd60e51b815260206004820181905260248201527f4f776e61626c653a2063616c6c6572206973206e6f7420746865206f776e6572604482015290519081900360640190fd5b600854421015620001d65760405162461bcd60e51b81526004018080602001828103825260218152602001806200260e6021913960400191505060405180910390fd5b42600855620001e6828262000225565b6001600160a01b038083166000908152600960205260408120546200020d92168362000334565b5050565b60055461010090046001600160a01b031690565b6001600160a01b03821662000281576040805162461bcd60e51b815260206004820152601f60248201527f45524332303a206d696e7420746f20746865207a65726f206164647265737300604482015290519081900360640190fd5b6200028f60008383620004a1565b620002ab81600254620004a660201b620012391790919060201c565b6002556001600160a01b03821660009081526020818152604090912054620002de91839062001239620004a6821b17901c565b6001600160a01b0383166000818152602081815260408083209490945583518581529351929391927fddf252ad1be2c89b69c2b068fc378daa952ba7f163c4a11628f55a4df523b3ef9281900390910190a35050565b816001600160a01b0316836001600160a01b031614158015620003575750600081115b15620004a1576001600160a01b03831615620003ff576001600160a01b0383166000908152600b602052604081205463ffffffff1690816200039b576000620003cd565b6001600160a01b0385166000908152600a6020908152604080832063ffffffff60001987011684529091529020600101545b90506000620003eb84836200050860201b620012931790919060201c565b9050620003fb8684848462000566565b5050505b6001600160a01b03821615620004a1576001600160a01b0382166000908152600b602052604081205463ffffffff1690816200043d5760006200046f565b6001600160a01b0384166000908152600a6020908152604080832063ffffffff60001987011684529091529020600101545b905060006200048d8483620004a660201b620012391790919060201c565b90506200049d8584848462000566565b5050505b505050565b60008282018381101562000501576040805162461bcd60e51b815260206004820152601b60248201527f536166654d6174683a206164646974696f6e206f766572666c6f770000000000604482015290519081900360640190fd5b9392505050565b60008282111562000560576040805162461bcd60e51b815260206004820152601e60248201527f536166654d6174683a207375627472616374696f6e206f766572666c6f770000604482015290519081900360640190fd5b50900390565b60006200058d436040518060600160405280603281526020016200262f60329139620006d1565b905060008463ffffffff16118015620005d757506001600160a01b0385166000908152600a6020908152604080832063ffffffff6000198901811685529252909120548282169116145b1562000616576001600160a01b0385166000908152600a6020908152604080832063ffffffff6000198901168452909152902060010182905562000687565b60408051808201825263ffffffff808416825260208083018681526001600160a01b038a166000818152600a84528681208b8616825284528681209551865490861663ffffffff199182161787559251600196870155908152600b9092529390208054928801909116919092161790555b604080518481526020810184905281516001600160a01b038816927fdec2bacdd2f05b59de34da9b523dff8be42e5e38e818c82fdb0bae774387a724928290030190a25050505050565b6000816401000000008410620007685760405162461bcd60e51b81526004018080602001828103825283818151815260200191508051906020019080838360005b838110156200072c57818101518382015260200162000712565b50505050905090810190601f1680156200075a5780820380516001836020036101000a031916815260200191505b509250505060405180910390fd5b509192915050565b828054600181600116156101000203166002900490600052602060002090601f016020900481019282601f10620007b357805160ff1916838001178555620007e3565b82800160010185558215620007e3579182015b82811115620007e3578251825591602001919060010190620007c6565b50620007f1929150620007f5565b5090565b5b80821115620007f15760008155600101620007f6565b611df2806200081c6000396000f3fe608060405234801561001057600080fd5b50600436106101cf5760003560e01c806370a0823111610104578063a457c2d7116100a2578063dd62ed3e11610071578063dd62ed3e146105b6578063e7a324dc146105e4578063f1127ed8146105ec578063f2fde38b1461063e576101cf565b8063a457c2d7146104f1578063a9059cbb1461051d578063b4b5ea5714610549578063c3cda5201461056f576101cf565b806379cc6790116100de57806379cc67901461048f5780637ecebe00146104bb5780638da5cb5b146104e157806395d89b41146104e9576101cf565b806370a0823114610435578063715018a61461045b578063782d6fe114610463576101cf565b8063395093511161017157806342966c681161014b57806342966c6814610371578063587cde1e1461038e5780635c19a95c146103d05780636fcfff45146103f6576101cf565b8063395093511461030f5780633eaaf86b1461033b57806340c10f1914610343576101cf565b806320606b70116101ad57806320606b70146102ab57806323b872dd146102b357806330b36cef146102e9578063313ce567146102f1576101cf565b806306fdde03146101d4578063095ea7b31461025157806318160ddd14610291575b600080fd5b6101dc610664565b6040805160208082528351818301528351919283929083019185019080838360005b838110156102165781810151838201526020016101fe565b50505050905090810190601f1680156102435780820380516001836020036101000a031916815260200191505b509250505060405180910390f35b61027d6004803603604081101561026757600080fd5b506001600160a01b0381351690602001356106fa565b604080519115158252519081900360200190f35b610299610718565b60408051918252519081900360200190f35b61029961071e565b61027d600480360360608110156102c957600080fd5b506001600160a01b03813581169160208101359091169060400135610742565b6102996107c9565b6102f96107cf565b6040805160ff9092168252519081900360200190f35b61027d6004803603604081101561032557600080fd5b506001600160a01b0381351690602001356107d8565b610299610826565b61036f6004803603604081101561035957600080fd5b506001600160a01b03813516906020013561082c565b005b61036f6004803603602081101561038757600080fd5b5035610918565b6103b4600480360360208110156103a457600080fd5b50356001600160a01b031661092c565b604080516001600160a01b039092168252519081900360200190f35b61036f600480360360208110156103e657600080fd5b50356001600160a01b031661094a565b61041c6004803603602081101561040c57600080fd5b50356001600160a01b0316610954565b6040805163ffffffff9092168252519081900360200190f35b6102996004803603602081101561044b57600080fd5b50356001600160a01b031661096c565b61036f610987565b6102996004803603604081101561047957600080fd5b506001600160a01b038135169060200135610a4b565b61036f600480360360408110156104a557600080fd5b506001600160a01b038135169060200135610c53565b610299600480360360208110156104d157600080fd5b50356001600160a01b0316610cad565b6103b4610cbf565b6101dc610cd3565b61027d6004803603604081101561050757600080fd5b506001600160a01b038135169060200135610d34565b61027d6004803603604081101561053357600080fd5b506001600160a01b038135169060200135610d9c565b6102996004803603602081101561055f57600080fd5b50356001600160a01b0316610db0565b61036f600480360360c081101561058557600080fd5b506001600160a01b038135169060208101359060408101359060ff6060820135169060808101359060a00135610e14565b610299600480360360408110156105cc57600080fd5b506001600160a01b038135811691602001351661109d565b6102996110c8565b61061e6004803603604081101561060257600080fd5b5080356001600160a01b0316906020013563ffffffff166110ec565b6040805163ffffffff909316835260208301919091528051918290030190f35b61036f6004803603602081101561065457600080fd5b50356001600160a01b0316611119565b60038054604080516020601f60026000196101006001881615020190951694909404938401819004810282018101909252828152606093909290918301828280156106f05780601f106106c5576101008083540402835291602001916106f0565b820191906000526020600020905b8154815290600101906020018083116106d357829003601f168201915b5050505050905090565b600061070e6107076112f0565b84846112f4565b5060015b92915050565b60025490565b7f8cad95687ba82c2ce50e74f7b754645e5117c3a5bec8151c0726d5857980a86681565b600061074f8484846113e0565b6107bf8461075b6112f0565b6107ba85604051806060016040528060288152602001611c22602891396001600160a01b038a166000908152600160205260408120906107996112f0565b6001600160a01b03168152602081019190915260400160002054919061153b565b6112f4565b5060019392505050565b60085481565b60055460ff1690565b600061070e6107e56112f0565b846107ba85600160006107f66112f0565b6001600160a01b03908116825260208083019390935260409182016000908120918c168152925290205490611239565b60065481565b6108346112f0565b6001600160a01b0316610845610cbf565b6001600160a01b0316146108a0576040805162461bcd60e51b815260206004820181905260248201527f4f776e61626c653a2063616c6c6572206973206e6f7420746865206f776e6572604482015290519081900360640190fd5b6008544210156108e15760405162461bcd60e51b8152600401808060200182810382526021815260200180611cd76021913960400191505060405180910390fd5b426008556108ef82826115d2565b6001600160a01b038083166000908152600960205260408120546109149216836116c2565b5050565b6109296109236112f0565b826117ff565b50565b6001600160a01b039081166000908152600960205260409020541690565b61092933826118fb565b600b6020526000908152604090205463ffffffff1681565b6001600160a01b031660009081526020819052604090205490565b61098f6112f0565b6001600160a01b03166109a0610cbf565b6001600160a01b0316146109fb576040805162461bcd60e51b815260206004820181905260248201527f4f776e61626c653a2063616c6c6572206973206e6f7420746865206f776e6572604482015290519081900360640190fd5b60055460405160009161010090046001600160a01b0316907f8be0079c531659141344cd1fd0a4f28419497f9722a3daafe3b4186f6b6457e0908390a360058054610100600160a81b0319169055565b6000438210610a8b5760405162461bcd60e51b8152600401808060200182810382526025815260200180611d986025913960400191505060405180910390fd5b6001600160a01b0383166000908152600b602052604090205463ffffffff1680610ab9576000915050610712565b6001600160a01b0384166000908152600a6020908152604080832063ffffffff600019860181168552925290912054168310610b28576001600160a01b0384166000908152600a602090815260408083206000199490940163ffffffff16835292905220600101549050610712565b6001600160a01b0384166000908152600a6020908152604080832083805290915290205463ffffffff16831015610b63576000915050610712565b600060001982015b8163ffffffff168163ffffffff161115610c1c57600282820363ffffffff16048103610b95611b57565b506001600160a01b0387166000908152600a6020908152604080832063ffffffff808616855290835292819020815180830190925280549093168082526001909301549181019190915290871415610bf7576020015194506107129350505050565b805163ffffffff16871115610c0e57819350610c15565b6001820392505b5050610b6b565b506001600160a01b0385166000908152600a6020908152604080832063ffffffff9094168352929052206001015491505092915050565b6000610c8a82604051806060016040528060248152602001611c6e60249139610c8386610c7e6112f0565b61109d565b919061153b565b9050610c9e83610c986112f0565b836112f4565b610ca883836117ff565b505050565b600c6020526000908152604090205481565b60055461010090046001600160a01b031690565b60048054604080516020601f60026000196101006001881615020190951694909404938401819004810282018101909252828152606093909290918301828280156106f05780601f106106c5576101008083540402835291602001916106f0565b600061070e610d416112f0565b846107ba85604051806060016040528060258152602001611d736025913960016000610d6b6112f0565b6001600160a01b03908116825260208083019390935260409182016000908120918d1681529252902054919061153b565b600061070e610da96112f0565b84846113e0565b6001600160a01b0381166000908152600b602052604081205463ffffffff1680610ddb576000610e0d565b6001600160a01b0383166000908152600a6020908152604080832063ffffffff60001986011684529091529020600101545b9392505050565b60007f8cad95687ba82c2ce50e74f7b754645e5117c3a5bec8151c0726d5857980a866610e3f610664565b80519060200120610e4e611990565b60408051602080820195909552808201939093526060830191909152306080808401919091528151808403909101815260a0830182528051908401207fe48329057bfd03d55e49b547132e39cffd9c1820ad7b9d4c5307691425d15adf60c08401526001600160a01b038b1660e084015261010083018a90526101208084018a9052825180850390910181526101408401835280519085012061190160f01b6101608501526101628401829052610182808501829052835180860390910181526101a285018085528151918701919091206000918290526101c2860180865281905260ff8b166101e287015261020286018a90526102228601899052935192965090949293909260019261024280840193601f198301929081900390910190855afa158015610f81573d6000803e3d6000fd5b5050604051601f1901519150506001600160a01b038116610fd35760405162461bcd60e51b8152600401808060200182810382526024815260200180611c4a6024913960400191505060405180910390fd5b6001600160a01b0381166000908152600c602052604090208054600181019091558914611047576040805162461bcd60e51b815260206004820181905260248201527f4d453a3a64656c656761746542795369673a20696e76616c6964206e6f6e6365604482015290519081900360640190fd5b874211156110865760405162461bcd60e51b8152600401808060200182810382526024815260200180611c926024913960400191505060405180910390fd5b611090818b6118fb565b505050505b505050505050565b6001600160a01b03918216600090815260016020908152604080832093909416825291909152205490565b7fe48329057bfd03d55e49b547132e39cffd9c1820ad7b9d4c5307691425d15adf81565b600a6020908152600092835260408084209091529082529020805460019091015463ffffffff9091169082565b6111216112f0565b6001600160a01b0316611132610cbf565b6001600160a01b03161461118d576040805162461bcd60e51b815260206004820181905260248201527f4f776e61626c653a2063616c6c6572206973206e6f7420746865206f776e6572604482015290519081900360640190fd5b6001600160a01b0381166111d25760405162461bcd60e51b8152600401808060200182810382526026815260200180611bb46026913960400191505060405180910390fd5b6005546040516001600160a01b0380841692610100900416907f8be0079c531659141344cd1fd0a4f28419497f9722a3daafe3b4186f6b6457e090600090a3600580546001600160a01b0390921661010002610100600160a81b0319909216919091179055565b600082820183811015610e0d576040805162461bcd60e51b815260206004820152601b60248201527f536166654d6174683a206164646974696f6e206f766572666c6f770000000000604482015290519081900360640190fd5b6000828211156112ea576040805162461bcd60e51b815260206004820152601e60248201527f536166654d6174683a207375627472616374696f6e206f766572666c6f770000604482015290519081900360640190fd5b50900390565b3390565b6001600160a01b0383166113395760405162461bcd60e51b8152600401808060200182810382526024815260200180611d1d6024913960400191505060405180910390fd5b6001600160a01b03821661137e5760405162461bcd60e51b8152600401808060200182810382526022815260200180611bda6022913960400191505060405180910390fd5b6001600160a01b03808416600081815260016020908152604080832094871680845294825291829020859055815185815291517f8c5be1e5ebec7d5bd14f71427d1e84f3dd0314c0f7b2291e5b200ac8c7c3b9259281900390910190a3505050565b6001600160a01b0383166114255760405162461bcd60e51b8152600401808060200182810382526025815260200180611cf86025913960400191505060405180910390fd5b6001600160a01b03821661146a5760405162461bcd60e51b8152600401808060200182810382526023815260200180611b6f6023913960400191505060405180910390fd5b611475838383610ca8565b6114b281604051806060016040528060268152602001611bfc602691396001600160a01b038616600090815260208190526040902054919061153b565b6001600160a01b0380851660009081526020819052604080822093909355908416815220546114e19082611239565b6001600160a01b038084166000818152602081815260409182902094909455805185815290519193928716927fddf252ad1be2c89b69c2b068fc378daa952ba7f163c4a11628f55a4df523b3ef92918290030190a3505050565b600081848411156115ca5760405162461bcd60e51b81526004018080602001828103825283818151815260200191508051906020019080838360005b8381101561158f578181015183820152602001611577565b50505050905090810190601f1680156115bc5780820380516001836020036101000a031916815260200191505b509250505060405180910390fd5b505050900390565b6001600160a01b03821661162d576040805162461bcd60e51b815260206004820152601f60248201527f45524332303a206d696e7420746f20746865207a65726f206164647265737300604482015290519081900360640190fd5b61163960008383610ca8565b6002546116469082611239565b6002556001600160a01b03821660009081526020819052604090205461166c9082611239565b6001600160a01b0383166000818152602081815260408083209490945583518581529351929391927fddf252ad1be2c89b69c2b068fc378daa952ba7f163c4a11628f55a4df523b3ef9281900390910190a35050565b816001600160a01b0316836001600160a01b0316141580156116e45750600081115b15610ca8576001600160a01b03831615611776576001600160a01b0383166000908152600b602052604081205463ffffffff169081611724576000611756565b6001600160a01b0385166000908152600a6020908152604080832063ffffffff60001987011684529091529020600101545b905060006117648285611293565b905061177286848484611994565b5050505b6001600160a01b03821615610ca8576001600160a01b0382166000908152600b602052604081205463ffffffff1690816117b15760006117e3565b6001600160a01b0384166000908152600a6020908152604080832063ffffffff60001987011684529091529020600101545b905060006117f18285611239565b905061109585848484611994565b6001600160a01b0382166118445760405162461bcd60e51b8152600401808060200182810382526021815260200180611cb66021913960400191505060405180910390fd5b61185082600083610ca8565b61188d81604051806060016040528060228152602001611b92602291396001600160a01b038516600090815260208190526040902054919061153b565b6001600160a01b0383166000908152602081905260409020556002546118b39082611293565b6002556040805182815290516000916001600160a01b038516917fddf252ad1be2c89b69c2b068fc378daa952ba7f163c4a11628f55a4df523b3ef9181900360200190a35050565b6001600160a01b03808316600090815260096020526040812054909116906119228461096c565b6001600160a01b0385811660008181526009602052604080822080546001600160a01b031916898616908117909155905194955093928616927f3134e8a2e6d97e929a7e54011ea5485d7d196dd5f0ba4d4ef95803e8e3fc257f9190a461198a8284836116c2565b50505050565b4690565b60006119b843604051806060016040528060328152602001611d4160329139611af9565b905060008463ffffffff16118015611a0157506001600160a01b0385166000908152600a6020908152604080832063ffffffff6000198901811685529252909120548282169116145b15611a3e576001600160a01b0385166000908152600a6020908152604080832063ffffffff60001989011684529091529020600101829055611aaf565b60408051808201825263ffffffff808416825260208083018681526001600160a01b038a166000818152600a84528681208b8616825284528681209551865490861663ffffffff199182161787559251600196870155908152600b9092529390208054928801909116919092161790555b604080518481526020810184905281516001600160a01b038816927fdec2bacdd2f05b59de34da9b523dff8be42e5e38e818c82fdb0bae774387a724928290030190a25050505050565b6000816401000000008410611b4f5760405162461bcd60e51b815260206004820181815283516024840152835190928392604490910191908501908083836000831561158f578181015183820152602001611577565b509192915050565b60408051808201909152600080825260208201529056fe45524332303a207472616e7366657220746f20746865207a65726f206164647265737345524332303a206275726e20616d6f756e7420657863656564732062616c616e63654f776e61626c653a206e6577206f776e657220697320746865207a65726f206164647265737345524332303a20617070726f766520746f20746865207a65726f206164647265737345524332303a207472616e7366657220616d6f756e7420657863656564732062616c616e636545524332303a207472616e7366657220616d6f756e74206578636565647320616c6c6f77616e63654d453a3a64656c656761746542795369673a20696e76616c6964207369676e617475726545524332303a206275726e20616d6f756e74206578636565647320616c6c6f77616e63654d453a3a64656c656761746542795369673a207369676e6174757265206578706972656445524332303a206275726e2066726f6d20746865207a65726f20616464726573734d453a3a6d696e743a206d696e74696e67206e6f7420616c6c6f7765642079657445524332303a207472616e736665722066726f6d20746865207a65726f206164647265737345524332303a20617070726f76652066726f6d20746865207a65726f20616464726573734d453a3a5f7772697465436865636b706f696e743a20626c6f636b206e756d6265722065786365656473203332206269747345524332303a2064656372656173656420616c6c6f77616e63652062656c6f77207a65726f4d453a3a6765745072696f72566f7465733a206e6f74207965742064657465726d696e6564a2646970667358221220169c35ff7e5399d8649eac850bf045b9ba29d7b54fff2903e8c2ef1364da07f064736f6c634300060c00334d453a3a6d696e743a206d696e74696e67206e6f7420616c6c6f776564207965744d453a3a5f7772697465436865636b706f696e743a20626c6f636b206e756d62657220657863656564732033322062697473",
    "sourcePath": "/Users/Uni/Documents/GitHub/meTokens/meTokens-erc20/contracts/meTokens.sol",
    "compiler": {
        "name": "solc",
        "version": "0.6.12+commit.27d51765"
    },
    "functionHashes": {
        "DELEGATION_TYPEHASH()": "e7a324dc",
        "DOMAIN_TYPEHASH()": "20606b70",
        "_totalSupply()": "3eaaf86b",
        "allowance(address,address)": "dd62ed3e",
        "approve(address,uint256)": "095ea7b3",
        "balanceOf(address)": "70a08231",
        "burn(uint256)": "42966c68",
        "burnFrom(address,uint256)": "79cc6790",
        "checkpoints(address,uint32)": "f1127ed8",
        "decimals()": "313ce567",
        "decreaseAllowance(address,uint256)": "a457c2d7",
        "delegate(address)": "5c19a95c",
        "delegateBySig(address,uint256,uint256,uint8,bytes32,bytes32)": "c3cda520",
        "delegates(address)": "587cde1e",
        "getCurrentVotes(address)": "b4b5ea57",
        "getPriorVotes(address,uint256)": "782d6fe1",
        "increaseAllowance(address,uint256)": "39509351",
        "mint(address,uint256)": "40c10f19",
        "mintingAllowedAfter()": "30b36cef",
        "name()": "06fdde03",
        "nonces(address)": "7ecebe00",
        "numCheckpoints(address)": "6fcfff45",
        "owner()": "8da5cb5b",
        "renounceOwnership()": "715018a6",
        "symbol()": "95d89b41",
        "totalSupply()": "18160ddd",
        "transfer(address,uint256)": "a9059cbb",
        "transferFrom(address,address,uint256)": "23b872dd",
        "transferOwnership(address)": "f2fde38b"
    },
    "gasEstimates": {
        "creation": {
            "codeDepositCost": "1533200",
            "executionCost": "infinite",
            "totalCost": "infinite"
        },
        "external": {
            "DELEGATION_TYPEHASH()": "264",
            "DOMAIN_TYPEHASH()": "244",
            "_totalSupply()": "1066",
            "allowance(address,address)": "1294",
            "approve(address,uint256)": "infinite",
            "balanceOf(address)": "1191",
            "burn(uint256)": "infinite",
            "burnFrom(address,uint256)": "infinite",
            "checkpoints(address,uint32)": "2168",
            "decimals()": "1125",
            "decreaseAllowance(address,uint256)": "infinite",
            "delegate(address)": "infinite",
            "delegateBySig(address,uint256,uint256,uint8,bytes32,bytes32)": "infinite",
            "delegates(address)": "1239",
            "getCurrentVotes(address)": "2250",
            "getPriorVotes(address,uint256)": "infinite",
            "increaseAllowance(address,uint256)": "infinite",
            "mint(address,uint256)": "infinite",
            "mintingAllowedAfter()": "1088",
            "name()": "infinite",
            "nonces(address)": "1191",
            "numCheckpoints(address)": "1250",
            "owner()": "1137",
            "renounceOwnership()": "24342",
            "symbol()": "infinite",
            "totalSupply()": "1089",
            "transfer(address,uint256)": "infinite",
            "transferFrom(address,address,uint256)": "infinite",
            "transferOwnership(address)": "infinite"
        },
        "internal": {
            "_delegate(address,address)": "infinite",
            "_moveDelegates(address,address,uint256)": "infinite",
            "_writeCheckpoint(address,uint32,uint256,uint256)": "infinite",
            "getChainId()": "14",
            "safe32(uint256,string memory)": "infinite"
        }
    }
}