{
    "contractName": "meTokens",
    "abi": [
        {
            "anonymous": false,
            "inputs": [
                {
                    "indexed": true,
                    "internalType": "address",
                    "name": "owner",
                    "type": "address"
                },
                {
                    "indexed": true,
                    "internalType": "address",
                    "name": "spender",
                    "type": "address"
                },
                {
                    "indexed": false,
                    "internalType": "uint256",
                    "name": "value",
                    "type": "uint256"
                }
            ],
            "name": "Approval",
            "type": "event"
        },
        {
            "anonymous": false,
            "inputs": [
                {
                    "indexed": true,
                    "internalType": "address",
                    "name": "delegator",
                    "type": "address"
                },
                {
                    "indexed": true,
                    "internalType": "address",
                    "name": "fromDelegate",
                    "type": "address"
                },
                {
                    "indexed": true,
                    "internalType": "address",
                    "name": "toDelegate",
                    "type": "address"
                }
            ],
            "name": "DelegateChanged",
            "type": "event"
        },
        {
            "anonymous": false,
            "inputs": [
                {
                    "indexed": true,
                    "internalType": "address",
                    "name": "delegate",
                    "type": "address"
                },
                {
                    "indexed": false,
                    "internalType": "uint256",
                    "name": "previousBalance",
                    "type": "uint256"
                },
                {
                    "indexed": false,
                    "internalType": "uint256",
                    "name": "newBalance",
                    "type": "uint256"
                }
            ],
            "name": "DelegateVotesChanged",
            "type": "event"
        },
        {
            "anonymous": false,
            "inputs": [
                {
                    "indexed": false,
                    "internalType": "address",
                    "name": "minter",
                    "type": "address"
                },
                {
                    "indexed": false,
                    "internalType": "address",
                    "name": "newMinter",
                    "type": "address"
                }
            ],
            "name": "MinterChanged",
            "type": "event"
        },
        {
            "anonymous": false,
            "inputs": [
                {
                    "indexed": true,
                    "internalType": "address",
                    "name": "from",
                    "type": "address"
                },
                {
                    "indexed": true,
                    "internalType": "address",
                    "name": "to",
                    "type": "address"
                },
                {
                    "indexed": false,
                    "internalType": "uint256",
                    "name": "value",
                    "type": "uint256"
                }
            ],
            "name": "Transfer",
            "type": "event"
        },
        {
            "inputs": [],
            "name": "DELEGATION_TYPEHASH",
            "outputs": [
                {
                    "internalType": "bytes32",
                    "name": "",
                    "type": "bytes32"
                }
            ],
            "stateMutability": "view",
            "type": "function"
        },
        {
            "inputs": [],
            "name": "DOMAIN_TYPEHASH",
            "outputs": [
                {
                    "internalType": "bytes32",
                    "name": "",
                    "type": "bytes32"
                }
            ],
            "stateMutability": "view",
            "type": "function"
        },
        {
            "inputs": [
                {
                    "internalType": "address",
                    "name": "owner",
                    "type": "address"
                },
                {
                    "internalType": "address",
                    "name": "spender",
                    "type": "address"
                }
            ],
            "name": "allowance",
            "outputs": [
                {
                    "internalType": "uint256",
                    "name": "",
                    "type": "uint256"
                }
            ],
            "stateMutability": "view",
            "type": "function"
        },
        {
            "inputs": [
                {
                    "internalType": "address",
                    "name": "spender",
                    "type": "address"
                },
                {
                    "internalType": "uint256",
                    "name": "amount",
                    "type": "uint256"
                }
            ],
            "name": "approve",
            "outputs": [
                {
                    "internalType": "bool",
                    "name": "",
                    "type": "bool"
                }
            ],
            "stateMutability": "nonpayable",
            "type": "function"
        },
        {
            "inputs": [
                {
                    "internalType": "address",
                    "name": "account",
                    "type": "address"
                }
            ],
            "name": "balanceOf",
            "outputs": [
                {
                    "internalType": "uint256",
                    "name": "",
                    "type": "uint256"
                }
            ],
            "stateMutability": "view",
            "type": "function"
        },
        {
            "inputs": [
                {
                    "internalType": "address",
                    "name": "",
                    "type": "address"
                },
                {
                    "internalType": "uint32",
                    "name": "",
                    "type": "uint32"
                }
            ],
            "name": "checkpoints",
            "outputs": [
                {
                    "internalType": "uint32",
                    "name": "fromBlock",
                    "type": "uint32"
                },
                {
                    "internalType": "uint256",
                    "name": "votes",
                    "type": "uint256"
                }
            ],
            "stateMutability": "view",
            "type": "function"
        },
        {
            "inputs": [],
            "name": "decimals",
            "outputs": [
                {
                    "internalType": "uint8",
                    "name": "",
                    "type": "uint8"
                }
            ],
            "stateMutability": "view",
            "type": "function"
        },
        {
            "inputs": [
                {
                    "internalType": "address",
                    "name": "spender",
                    "type": "address"
                },
                {
                    "internalType": "uint256",
                    "name": "subtractedValue",
                    "type": "uint256"
                }
            ],
            "name": "decreaseAllowance",
            "outputs": [
                {
                    "internalType": "bool",
                    "name": "",
                    "type": "bool"
                }
            ],
            "stateMutability": "nonpayable",
            "type": "function"
        },
        {
            "inputs": [
                {
                    "internalType": "address",
                    "name": "delegatee",
                    "type": "address"
                }
            ],
            "name": "delegate",
            "outputs": [],
            "stateMutability": "nonpayable",
            "type": "function"
        },
        {
            "inputs": [
                {
                    "internalType": "address",
                    "name": "delegatee",
                    "type": "address"
                },
                {
                    "internalType": "uint256",
                    "name": "nonce",
                    "type": "uint256"
                },
                {
                    "internalType": "uint256",
                    "name": "expiry",
                    "type": "uint256"
                },
                {
                    "internalType": "uint8",
                    "name": "v",
                    "type": "uint8"
                },
                {
                    "internalType": "bytes32",
                    "name": "r",
                    "type": "bytes32"
                },
                {
                    "internalType": "bytes32",
                    "name": "s",
                    "type": "bytes32"
                }
            ],
            "name": "delegateBySig",
            "outputs": [],
            "stateMutability": "nonpayable",
            "type": "function"
        },
        {
            "inputs": [
                {
                    "internalType": "address",
                    "name": "delegator",
                    "type": "address"
                }
            ],
            "name": "delegates",
            "outputs": [
                {
                    "internalType": "address",
                    "name": "",
                    "type": "address"
                }
            ],
            "stateMutability": "view",
            "type": "function"
        },
        {
            "inputs": [
                {
                    "internalType": "address",
                    "name": "account",
                    "type": "address"
                }
            ],
            "name": "getCurrentVotes",
            "outputs": [
                {
                    "internalType": "uint256",
                    "name": "",
                    "type": "uint256"
                }
            ],
            "stateMutability": "view",
            "type": "function"
        },
        {
            "inputs": [
                {
                    "internalType": "address",
                    "name": "account",
                    "type": "address"
                },
                {
                    "internalType": "uint256",
                    "name": "blockNumber",
                    "type": "uint256"
                }
            ],
            "name": "getPriorVotes",
            "outputs": [
                {
                    "internalType": "uint256",
                    "name": "",
                    "type": "uint256"
                }
            ],
            "stateMutability": "view",
            "type": "function"
        },
        {
            "inputs": [
                {
                    "internalType": "address",
                    "name": "spender",
                    "type": "address"
                },
                {
                    "internalType": "uint256",
                    "name": "addedValue",
                    "type": "uint256"
                }
            ],
            "name": "increaseAllowance",
            "outputs": [
                {
                    "internalType": "bool",
                    "name": "",
                    "type": "bool"
                }
            ],
            "stateMutability": "nonpayable",
            "type": "function"
        },
        {
            "inputs": [
                {
                    "internalType": "address",
                    "name": "_to",
                    "type": "address"
                },
                {
                    "internalType": "uint256",
                    "name": "_amount",
                    "type": "uint256"
                }
            ],
            "name": "mint",
            "outputs": [],
            "stateMutability": "nonpayable",
            "type": "function"
        },
        {
            "inputs": [],
            "name": "minter",
            "outputs": [
                {
                    "internalType": "address",
                    "name": "",
                    "type": "address"
                }
            ],
            "stateMutability": "view",
            "type": "function"
        },
        {
            "inputs": [],
            "name": "mintingAllowedAfter",
            "outputs": [
                {
                    "internalType": "uint256",
                    "name": "",
                    "type": "uint256"
                }
            ],
            "stateMutability": "view",
            "type": "function"
        },
        {
            "inputs": [],
            "name": "name",
            "outputs": [
                {
                    "internalType": "string",
                    "name": "",
                    "type": "string"
                }
            ],
            "stateMutability": "view",
            "type": "function"
        },
        {
            "inputs": [
                {
                    "internalType": "address",
                    "name": "",
                    "type": "address"
                }
            ],
            "name": "nonces",
            "outputs": [
                {
                    "internalType": "uint256",
                    "name": "",
                    "type": "uint256"
                }
            ],
            "stateMutability": "view",
            "type": "function"
        },
        {
            "inputs": [
                {
                    "internalType": "address",
                    "name": "",
                    "type": "address"
                }
            ],
            "name": "numCheckpoints",
            "outputs": [
                {
                    "internalType": "uint32",
                    "name": "",
                    "type": "uint32"
                }
            ],
            "stateMutability": "view",
            "type": "function"
        },
        {
            "inputs": [
                {
                    "internalType": "address",
                    "name": "_minter",
                    "type": "address"
                }
            ],
            "name": "setMinter",
            "outputs": [],
            "stateMutability": "nonpayable",
            "type": "function"
        },
        {
            "inputs": [],
            "name": "symbol",
            "outputs": [
                {
                    "internalType": "string",
                    "name": "",
                    "type": "string"
                }
            ],
            "stateMutability": "view",
            "type": "function"
        },
        {
            "inputs": [],
            "name": "totalSupply",
            "outputs": [
                {
                    "internalType": "uint256",
                    "name": "",
                    "type": "uint256"
                }
            ],
            "stateMutability": "view",
            "type": "function"
        },
        {
            "inputs": [
                {
                    "internalType": "address",
                    "name": "recipient",
                    "type": "address"
                },
                {
                    "internalType": "uint256",
                    "name": "amount",
                    "type": "uint256"
                }
            ],
            "name": "transfer",
            "outputs": [
                {
                    "internalType": "bool",
                    "name": "",
                    "type": "bool"
                }
            ],
            "stateMutability": "nonpayable",
            "type": "function"
        },
        {
            "inputs": [
                {
                    "internalType": "address",
                    "name": "sender",
                    "type": "address"
                },
                {
                    "internalType": "address",
                    "name": "recipient",
                    "type": "address"
                },
                {
                    "internalType": "uint256",
                    "name": "amount",
                    "type": "uint256"
                }
            ],
            "name": "transferFrom",
            "outputs": [
                {
                    "internalType": "bool",
                    "name": "",
                    "type": "bool"
                }
            ],
            "stateMutability": "nonpayable",
            "type": "function"
        }
    ],
    "bytecode": "60806040526301e133804201600655600780546001600160a01b031916331790553480156200002d57600080fd5b5060408051808201825260088152676d65546f6b656e7360c01b6020808301918252835180850190945260028452614d4560f01b9084015281519192916200007891600391620000a4565b5080516200008e906004906020840190620000a4565b50506005805460ff191660121790555062000140565b828054600181600116156101000203166002900490600052602060002090601f016020900481019282601f10620000e757805160ff191683800117855562000117565b8280016001018555821562000117579182015b8281111562000117578251825591602001919060010190620000fa565b506200012592915062000129565b5090565b5b808211156200012557600081556001016200012a565b611a3580620001506000396000f3fe608060405234801561001057600080fd5b50600436106101735760003560e01c80636fcfff45116100de578063a9059cbb11610097578063dd62ed3e11610071578063dd62ed3e14610501578063e7a324dc1461052f578063f1127ed814610537578063fca3b5aa1461058957610173565b8063a9059cbb14610468578063b4b5ea5714610494578063c3cda520146104ba57610173565b80636fcfff451461037d57806370a08231146103bc578063782d6fe1146103e25780637ecebe001461040e57806395d89b4114610434578063a457c2d71461043c57610173565b806330b36cef1161013057806330b36cef146102b1578063313ce567146102b957806339509351146102d757806340c10f1914610303578063587cde1e146103315780635c19a95c1461035757610173565b806306fdde031461017857806307546172146101f5578063095ea7b31461021957806318160ddd1461025957806320606b701461027357806323b872dd1461027b575b600080fd5b6101806105af565b6040805160208082528351818301528351919283929083019185019080838360005b838110156101ba5781810151838201526020016101a2565b50505050905090810190601f1680156101e75780820380516001836020036101000a031916815260200191505b509250505060405180910390f35b6101fd610645565b604080516001600160a01b039092168252519081900360200190f35b6102456004803603604081101561022f57600080fd5b506001600160a01b038135169060200135610654565b604080519115158252519081900360200190f35b610261610672565b60408051918252519081900360200190f35b610261610678565b6102456004803603606081101561029157600080fd5b506001600160a01b0381358116916020810135909116906040013561069c565b610261610723565b6102c1610729565b6040805160ff9092168252519081900360200190f35b610245600480360360408110156102ed57600080fd5b506001600160a01b038135169060200135610732565b61032f6004803603604081101561031957600080fd5b506001600160a01b038135169060200135610780565b005b6101fd6004803603602081101561034757600080fd5b50356001600160a01b0316610853565b61032f6004803603602081101561036d57600080fd5b50356001600160a01b0316610871565b6103a36004803603602081101561039357600080fd5b50356001600160a01b031661087e565b6040805163ffffffff9092168252519081900360200190f35b610261600480360360208110156103d257600080fd5b50356001600160a01b0316610896565b610261600480360360408110156103f857600080fd5b506001600160a01b0381351690602001356108b1565b6102616004803603602081101561042457600080fd5b50356001600160a01b0316610ab9565b610180610acb565b6102456004803603604081101561045257600080fd5b506001600160a01b038135169060200135610b2c565b6102456004803603604081101561047e57600080fd5b506001600160a01b038135169060200135610b94565b610261600480360360208110156104aa57600080fd5b50356001600160a01b0316610ba8565b61032f600480360360c08110156104d057600080fd5b506001600160a01b038135169060208101359060408101359060ff6060820135169060808101359060a00135610c0c565b6102616004803603604081101561051757600080fd5b506001600160a01b0381358116916020013516610e95565b610261610ec0565b6105696004803603604081101561054d57600080fd5b5080356001600160a01b0316906020013563ffffffff16610ee4565b6040805163ffffffff909316835260208301919091528051918290030190f35b61032f6004803603602081101561059f57600080fd5b50356001600160a01b0316610f11565b60038054604080516020601f600260001961010060018816150201909516949094049384018190048102820181019092528281526060939092909183018282801561063b5780601f106106105761010080835404028352916020019161063b565b820191906000526020600020905b81548152906001019060200180831161061e57829003601f168201915b5050505050905090565b6007546001600160a01b031681565b6000610668610661610fc4565b8484610fc8565b5060015b92915050565b60025490565b7f8cad95687ba82c2ce50e74f7b754645e5117c3a5bec8151c0726d5857980a86681565b60006106a98484846110b4565b610719846106b5610fc4565b6107148560405180606001604052806028815260200161186e602891396001600160a01b038a166000908152600160205260408120906106f3610fc4565b6001600160a01b03168152602081019190915260400160002054919061120f565b610fc8565b5060019392505050565b60065481565b60055460ff1690565b600061066861073f610fc4565b846107148560016000610750610fc4565b6001600160a01b03908116825260208083019390935260409182016000908120918c1681529252902054906112a6565b6007546001600160a01b031633146107df576040805162461bcd60e51b815260206004820152601e60248201527f4d453a3a6d696e743a206d696e746572206f6e6c792066756e6374696f6e0000604482015290519081900360640190fd5b6006544210156108205760405162461bcd60e51b81526004018080602001828103825260218152602001806118de6021913960400191505060405180910390fd5b61082a8282611300565b6001600160a01b0380831660009081526008602052604081205461084f9216836113f0565b5050565b6001600160a01b039081166000908152600860205260409020541690565b61087b3382611532565b50565b600a6020526000908152604090205463ffffffff1681565b6001600160a01b031660009081526020819052604090205490565b60004382106108f15760405162461bcd60e51b81526004018080602001828103825260258152602001806119db6025913960400191505060405180910390fd5b6001600160a01b0383166000908152600a602052604090205463ffffffff168061091f57600091505061066c565b6001600160a01b038416600090815260096020908152604080832063ffffffff60001986018116855292529091205416831061098e576001600160a01b03841660009081526009602090815260408083206000199490940163ffffffff1683529290522060010154905061066c565b6001600160a01b038416600090815260096020908152604080832083805290915290205463ffffffff168310156109c957600091505061066c565b600060001982015b8163ffffffff168163ffffffff161115610a8257600282820363ffffffff160481036109fb6117eb565b506001600160a01b038716600090815260096020908152604080832063ffffffff808616855290835292819020815180830190925280549093168082526001909301549181019190915290871415610a5d5760200151945061066c9350505050565b805163ffffffff16871115610a7457819350610a7b565b6001820392505b50506109d1565b506001600160a01b038516600090815260096020908152604080832063ffffffff9094168352929052206001015491505092915050565b600b6020526000908152604090205481565b60048054604080516020601f600260001961010060018816150201909516949094049384018190048102820181019092528281526060939092909183018282801561063b5780601f106106105761010080835404028352916020019161063b565b6000610668610b39610fc4565b846107148560405180606001604052806025815260200161197a6025913960016000610b63610fc4565b6001600160a01b03908116825260208083019390935260409182016000908120918d1681529252902054919061120f565b6000610668610ba1610fc4565b84846110b4565b6001600160a01b0381166000908152600a602052604081205463ffffffff1680610bd3576000610c05565b6001600160a01b038316600090815260096020908152604080832063ffffffff60001986011684529091529020600101545b9392505050565b60007f8cad95687ba82c2ce50e74f7b754645e5117c3a5bec8151c0726d5857980a866610c376105af565b80519060200120610c466115c7565b60408051602080820195909552808201939093526060830191909152306080808401919091528151808403909101815260a0830182528051908401207fe48329057bfd03d55e49b547132e39cffd9c1820ad7b9d4c5307691425d15adf60c08401526001600160a01b038b1660e084015261010083018a90526101208084018a9052825180850390910181526101408401835280519085012061190160f01b6101608501526101628401829052610182808501829052835180860390910181526101a285018085528151918701919091206000918290526101c2860180865281905260ff8b166101e287015261020286018a90526102228601899052935192965090949293909260019261024280840193601f198301929081900390910190855afa158015610d79573d6000803e3d6000fd5b5050604051601f1901519150506001600160a01b038116610dcb5760405162461bcd60e51b81526004018080602001828103825260248152602001806118966024913960400191505060405180910390fd5b6001600160a01b0381166000908152600b602052604090208054600181019091558914610e3f576040805162461bcd60e51b815260206004820181905260248201527f4d453a3a64656c656761746542795369673a20696e76616c6964206e6f6e6365604482015290519081900360640190fd5b87421115610e7e5760405162461bcd60e51b81526004018080602001828103825260248152602001806118ba6024913960400191505060405180910390fd5b610e88818b611532565b505050505b505050505050565b6001600160a01b03918216600090815260016020908152604080832093909416825291909152205490565b7fe48329057bfd03d55e49b547132e39cffd9c1820ad7b9d4c5307691425d15adf81565b60096020908152600092835260408084209091529082529020805460019091015463ffffffff9091169082565b6007546001600160a01b03163314610f5a5760405162461bcd60e51b815260040180806020018281038252603c81526020018061199f603c913960400191505060405180910390fd5b600754604080516001600160a01b039283168152918316602083015280517f3b0007eb941cf645526cbb3a4fdaecda9d28ce4843167d9263b536a1f1edc0f69281900390910190a1600780546001600160a01b0319166001600160a01b0392909216919091179055565b3390565b6001600160a01b03831661100d5760405162461bcd60e51b81526004018080602001828103825260248152602001806119246024913960400191505060405180910390fd5b6001600160a01b0382166110525760405162461bcd60e51b81526004018080602001828103825260228152602001806118266022913960400191505060405180910390fd5b6001600160a01b03808416600081815260016020908152604080832094871680845294825291829020859055815185815291517f8c5be1e5ebec7d5bd14f71427d1e84f3dd0314c0f7b2291e5b200ac8c7c3b9259281900390910190a3505050565b6001600160a01b0383166110f95760405162461bcd60e51b81526004018080602001828103825260258152602001806118ff6025913960400191505060405180910390fd5b6001600160a01b03821661113e5760405162461bcd60e51b81526004018080602001828103825260238152602001806118036023913960400191505060405180910390fd5b61114983838361152d565b61118681604051806060016040528060268152602001611848602691396001600160a01b038616600090815260208190526040902054919061120f565b6001600160a01b0380851660009081526020819052604080822093909355908416815220546111b590826112a6565b6001600160a01b038084166000818152602081815260409182902094909455805185815290519193928716927fddf252ad1be2c89b69c2b068fc378daa952ba7f163c4a11628f55a4df523b3ef92918290030190a3505050565b6000818484111561129e5760405162461bcd60e51b81526004018080602001828103825283818151815260200191508051906020019080838360005b8381101561126357818101518382015260200161124b565b50505050905090810190601f1680156112905780820380516001836020036101000a031916815260200191505b509250505060405180910390fd5b505050900390565b600082820183811015610c05576040805162461bcd60e51b815260206004820152601b60248201527f536166654d6174683a206164646974696f6e206f766572666c6f770000000000604482015290519081900360640190fd5b6001600160a01b03821661135b576040805162461bcd60e51b815260206004820152601f60248201527f45524332303a206d696e7420746f20746865207a65726f206164647265737300604482015290519081900360640190fd5b6113676000838361152d565b60025461137490826112a6565b6002556001600160a01b03821660009081526020819052604090205461139a90826112a6565b6001600160a01b0383166000818152602081815260408083209490945583518581529351929391927fddf252ad1be2c89b69c2b068fc378daa952ba7f163c4a11628f55a4df523b3ef9281900390910190a35050565b816001600160a01b0316836001600160a01b0316141580156114125750600081115b1561152d576001600160a01b038316156114a4576001600160a01b0383166000908152600a602052604081205463ffffffff169081611452576000611484565b6001600160a01b038516600090815260096020908152604080832063ffffffff60001987011684529091529020600101545b9050600061149282856115cb565b90506114a086848484611628565b5050505b6001600160a01b0382161561152d576001600160a01b0382166000908152600a602052604081205463ffffffff1690816114df576000611511565b6001600160a01b038416600090815260096020908152604080832063ffffffff60001987011684529091529020600101545b9050600061151f82856112a6565b9050610e8d85848484611628565b505050565b6001600160a01b038083166000908152600860205260408120549091169061155984610896565b6001600160a01b0385811660008181526008602052604080822080546001600160a01b031916898616908117909155905194955093928616927f3134e8a2e6d97e929a7e54011ea5485d7d196dd5f0ba4d4ef95803e8e3fc257f9190a46115c18284836113f0565b50505050565b4690565b600082821115611622576040805162461bcd60e51b815260206004820152601e60248201527f536166654d6174683a207375627472616374696f6e206f766572666c6f770000604482015290519081900360640190fd5b50900390565b600061164c436040518060600160405280603281526020016119486032913961178d565b905060008463ffffffff1611801561169557506001600160a01b038516600090815260096020908152604080832063ffffffff6000198901811685529252909120548282169116145b156116d2576001600160a01b038516600090815260096020908152604080832063ffffffff60001989011684529091529020600101829055611743565b60408051808201825263ffffffff808416825260208083018681526001600160a01b038a166000818152600984528681208b8616825284528681209551865490861663ffffffff199182161787559251600196870155908152600a9092529390208054928801909116919092161790555b604080518481526020810184905281516001600160a01b038816927fdec2bacdd2f05b59de34da9b523dff8be42e5e38e818c82fdb0bae774387a724928290030190a25050505050565b60008164010000000084106117e35760405162461bcd60e51b815260206004820181815283516024840152835190928392604490910191908501908083836000831561126357818101518382015260200161124b565b509192915050565b60408051808201909152600080825260208201529056fe45524332303a207472616e7366657220746f20746865207a65726f206164647265737345524332303a20617070726f766520746f20746865207a65726f206164647265737345524332303a207472616e7366657220616d6f756e7420657863656564732062616c616e636545524332303a207472616e7366657220616d6f756e74206578636565647320616c6c6f77616e63654d453a3a64656c656761746542795369673a20696e76616c6964207369676e61747572654d453a3a64656c656761746542795369673a207369676e617475726520657870697265644d453a3a6d696e743a206d696e74696e67206e6f7420616c6c6f7765642079657445524332303a207472616e736665722066726f6d20746865207a65726f206164647265737345524332303a20617070726f76652066726f6d20746865207a65726f20616464726573734d453a3a5f7772697465436865636b706f696e743a20626c6f636b206e756d6265722065786365656473203332206269747345524332303a2064656372656173656420616c6c6f77616e63652062656c6f77207a65726f4d453a3a7365744d696e7465723a206f6e6c7920746865206d696e746572206d6179206368616e676520746865206d696e74657220616464726573734d453a3a6765745072696f72566f7465733a206e6f74207965742064657465726d696e6564a26469706673582212203d571a23bcd4d30b08f96f89f9227f91b2c4402f5900ee411f013893dc6ea11e64736f6c634300060c0033",
    "sourcePath": "/Users/Uni/Documents/GitHub/meTokens/meTokens-erc20/flats/meTokens_flat.sol",
    "compiler": {
        "name": "solc",
        "version": "0.6.12+commit.27d51765"
    },
    "functionHashes": {
        "DELEGATION_TYPEHASH()": "e7a324dc",
        "DOMAIN_TYPEHASH()": "20606b70",
        "allowance(address,address)": "dd62ed3e",
        "approve(address,uint256)": "095ea7b3",
        "balanceOf(address)": "70a08231",
        "checkpoints(address,uint32)": "f1127ed8",
        "decimals()": "313ce567",
        "decreaseAllowance(address,uint256)": "a457c2d7",
        "delegate(address)": "5c19a95c",
        "delegateBySig(address,uint256,uint256,uint8,bytes32,bytes32)": "c3cda520",
        "delegates(address)": "587cde1e",
        "getCurrentVotes(address)": "b4b5ea57",
        "getPriorVotes(address,uint256)": "782d6fe1",
        "increaseAllowance(address,uint256)": "39509351",
        "mint(address,uint256)": "40c10f19",
        "minter()": "07546172",
        "mintingAllowedAfter()": "30b36cef",
        "name()": "06fdde03",
        "nonces(address)": "7ecebe00",
        "numCheckpoints(address)": "6fcfff45",
        "setMinter(address)": "fca3b5aa",
        "symbol()": "95d89b41",
        "totalSupply()": "18160ddd",
        "transfer(address,uint256)": "a9059cbb",
        "transferFrom(address,address,uint256)": "23b872dd"
    },
    "gasEstimates": {
        "creation": {
            "codeDepositCost": "1341800",
            "executionCost": "infinite",
            "totalCost": "infinite"
        },
        "external": {
            "DELEGATION_TYPEHASH()": "264",
            "DOMAIN_TYPEHASH()": "310",
            "allowance(address,address)": "1294",
            "approve(address,uint256)": "infinite",
            "balanceOf(address)": "1190",
            "checkpoints(address,uint32)": "2168",
            "decimals()": "1058",
            "decreaseAllowance(address,uint256)": "infinite",
            "delegate(address)": "infinite",
            "delegateBySig(address,uint256,uint256,uint8,bytes32,bytes32)": "infinite",
            "delegates(address)": "1283",
            "getCurrentVotes(address)": "2228",
            "getPriorVotes(address,uint256)": "infinite",
            "increaseAllowance(address,uint256)": "infinite",
            "mint(address,uint256)": "infinite",
            "minter()": "1083",
            "mintingAllowedAfter()": "1021",
            "name()": "infinite",
            "nonces(address)": "1213",
            "numCheckpoints(address)": "1162",
            "setMinter(address)": "infinite",
            "symbol()": "infinite",
            "totalSupply()": "1088",
            "transfer(address,uint256)": "infinite",
            "transferFrom(address,address,uint256)": "infinite"
        },
        "internal": {
            "_delegate(address,address)": "infinite",
            "_moveDelegates(address,address,uint256)": "infinite",
            "_writeCheckpoint(address,uint32,uint256,uint256)": "infinite",
            "getChainId()": "14",
            "safe32(uint256,string memory)": "infinite"
        }
    }
}