{
  "contractName": "sMeToken",
  "abi": [
    {
      "inputs": [
        {
          "internalType": "uint256",
          "name": "totalSupply_",
          "type": "uint256"
        }
      ],
      "stateMutability": "nonpayable",
      "type": "constructor"
    },
    {
      "anonymous": false,
      "inputs": [
        {
          "indexed": true,
          "internalType": "address",
          "name": "owner",
          "type": "address"
        },
        {
          "indexed": true,
          "internalType": "address",
          "name": "spender",
          "type": "address"
        },
        {
          "indexed": false,
          "internalType": "uint256",
          "name": "value",
          "type": "uint256"
        }
      ],
      "name": "Approval",
      "type": "event"
    },
    {
      "anonymous": false,
      "inputs": [
        {
          "indexed": true,
          "internalType": "address",
          "name": "previousOwner",
          "type": "address"
        },
        {
          "indexed": true,
          "internalType": "address",
          "name": "newOwner",
          "type": "address"
        }
      ],
      "name": "OwnershipTransferred",
      "type": "event"
    },
    {
      "anonymous": false,
      "inputs": [
        {
          "indexed": true,
          "internalType": "address",
          "name": "from",
          "type": "address"
        },
        {
          "indexed": true,
          "internalType": "address",
          "name": "to",
          "type": "address"
        },
        {
          "indexed": false,
          "internalType": "uint256",
          "name": "value",
          "type": "uint256"
        }
      ],
      "name": "Transfer",
      "type": "event"
    },
    {
      "inputs": [
        {
          "internalType": "address",
          "name": "owner",
          "type": "address"
        },
        {
          "internalType": "address",
          "name": "spender",
          "type": "address"
        }
      ],
      "name": "allowance",
      "outputs": [
        {
          "internalType": "uint256",
          "name": "",
          "type": "uint256"
        }
      ],
      "stateMutability": "view",
      "type": "function",
      "constant": true
    },
    {
      "inputs": [
        {
          "internalType": "address",
          "name": "spender",
          "type": "address"
        },
        {
          "internalType": "uint256",
          "name": "amount",
          "type": "uint256"
        }
      ],
      "name": "approve",
      "outputs": [
        {
          "internalType": "bool",
          "name": "",
          "type": "bool"
        }
      ],
      "stateMutability": "nonpayable",
      "type": "function"
    },
    {
      "inputs": [
        {
          "internalType": "address",
          "name": "account",
          "type": "address"
        }
      ],
      "name": "balanceOf",
      "outputs": [
        {
          "internalType": "uint256",
          "name": "",
          "type": "uint256"
        }
      ],
      "stateMutability": "view",
      "type": "function",
      "constant": true
    },
    {
      "inputs": [],
      "name": "decimals",
      "outputs": [
        {
          "internalType": "uint8",
          "name": "",
          "type": "uint8"
        }
      ],
      "stateMutability": "view",
      "type": "function",
      "constant": true
    },
    {
      "inputs": [
        {
          "internalType": "address",
          "name": "spender",
          "type": "address"
        },
        {
          "internalType": "uint256",
          "name": "subtractedValue",
          "type": "uint256"
        }
      ],
      "name": "decreaseAllowance",
      "outputs": [
        {
          "internalType": "bool",
          "name": "",
          "type": "bool"
        }
      ],
      "stateMutability": "nonpayable",
      "type": "function"
    },
    {
      "inputs": [
        {
          "internalType": "address",
          "name": "spender",
          "type": "address"
        },
        {
          "internalType": "uint256",
          "name": "addedValue",
          "type": "uint256"
        }
      ],
      "name": "increaseAllowance",
      "outputs": [
        {
          "internalType": "bool",
          "name": "",
          "type": "bool"
        }
      ],
      "stateMutability": "nonpayable",
      "type": "function"
    },
    {
      "inputs": [],
      "name": "name",
      "outputs": [
        {
          "internalType": "string",
          "name": "",
          "type": "string"
        }
      ],
      "stateMutability": "view",
      "type": "function",
      "constant": true
    },
    {
      "inputs": [],
      "name": "owner",
      "outputs": [
        {
          "internalType": "address",
          "name": "",
          "type": "address"
        }
      ],
      "stateMutability": "view",
      "type": "function",
      "constant": true
    },
    {
      "inputs": [],
      "name": "renounceOwnership",
      "outputs": [],
      "stateMutability": "nonpayable",
      "type": "function"
    },
    {
      "inputs": [],
      "name": "symbol",
      "outputs": [
        {
          "internalType": "string",
          "name": "",
          "type": "string"
        }
      ],
      "stateMutability": "view",
      "type": "function",
      "constant": true
    },
    {
      "inputs": [],
      "name": "totalSupply",
      "outputs": [
        {
          "internalType": "uint256",
          "name": "",
          "type": "uint256"
        }
      ],
      "stateMutability": "view",
      "type": "function",
      "constant": true
    },
    {
      "inputs": [
        {
          "internalType": "address",
          "name": "newOwner",
          "type": "address"
        }
      ],
      "name": "transferOwnership",
      "outputs": [],
      "stateMutability": "nonpayable",
      "type": "function"
    },
    {
      "inputs": [
        {
          "internalType": "address",
          "name": "_to",
          "type": "address"
        },
        {
          "internalType": "uint256",
          "name": "_amount",
          "type": "uint256"
        }
      ],
      "name": "mint",
      "outputs": [],
      "stateMutability": "nonpayable",
      "type": "function"
    },
    {
      "inputs": [
        {
          "internalType": "address",
          "name": "check",
          "type": "address"
        }
      ],
      "name": "isAdmin",
      "outputs": [
        {
          "internalType": "bool",
          "name": "",
          "type": "bool"
        }
      ],
      "stateMutability": "view",
      "type": "function",
      "constant": true
    },
    {
      "inputs": [
        {
          "internalType": "address",
          "name": "newAdmin",
          "type": "address"
        }
      ],
      "name": "addAdmin",
      "outputs": [],
      "stateMutability": "nonpayable",
      "type": "function"
    },
    {
      "inputs": [
        {
          "internalType": "address",
          "name": "check",
          "type": "address"
        }
      ],
      "name": "isWhitelisted",
      "outputs": [
        {
          "internalType": "bool",
          "name": "",
          "type": "bool"
        }
      ],
      "stateMutability": "view",
      "type": "function",
      "constant": true
    },
    {
      "inputs": [
        {
          "internalType": "address",
          "name": "newContract",
          "type": "address"
        }
      ],
      "name": "addToWhitelist",
      "outputs": [],
      "stateMutability": "nonpayable",
      "type": "function"
    },
    {
      "inputs": [
        {
          "internalType": "address",
          "name": "oldContract",
          "type": "address"
        }
      ],
      "name": "removeFromWhitelist",
      "outputs": [],
      "stateMutability": "nonpayable",
      "type": "function"
    },
    {
      "inputs": [
        {
          "internalType": "address",
          "name": "recipient",
          "type": "address"
        },
        {
          "internalType": "uint256",
          "name": "amount",
          "type": "uint256"
        }
      ],
      "name": "transfer",
      "outputs": [
        {
          "internalType": "bool",
          "name": "",
          "type": "bool"
        }
      ],
      "stateMutability": "nonpayable",
      "type": "function"
    },
    {
      "inputs": [
        {
          "internalType": "address",
          "name": "sender",
          "type": "address"
        },
        {
          "internalType": "address",
          "name": "recipient",
          "type": "address"
        },
        {
          "internalType": "uint256",
          "name": "amount",
          "type": "uint256"
        }
      ],
      "name": "transferFrom",
      "outputs": [
        {
          "internalType": "bool",
          "name": "",
          "type": "bool"
        }
      ],
      "stateMutability": "nonpayable",
      "type": "function"
    }
  ],
  "bytecode": "0x60806040523480156200001157600080fd5b5060405162001206380380620012068339810160408190526200003491620001c3565b6040518060400160405280600981526020016839a6b2902a37b5b2b760b91b81525060405180604001604052806003815260200162534d4560e81b81525081600390805190602001906200008a9291906200011d565b508051620000a09060049060208401906200011d565b5050506000620000b56200011960201b60201c565b600580546001600160a01b0319166001600160a01b038316908117909155604051919250906000907f8be0079c531659141344cd1fd0a4f28419497f9722a3daafe3b4186f6b6457e0908290a3506009556008805460ff1916601217905562000219565b3390565b8280546200012b90620001dc565b90600052602060002090601f0160209004810192826200014f57600085556200019a565b82601f106200016a57805160ff19168380011785556200019a565b828001600101855582156200019a579182015b828111156200019a5782518255916020019190600101906200017d565b50620001a8929150620001ac565b5090565b5b80821115620001a85760008155600101620001ad565b600060208284031215620001d5578081fd5b5051919050565b600281046001821680620001f157607f821691505b602082108114156200021357634e487b7160e01b600052602260045260246000fd5b50919050565b610fdd80620002296000396000f3fe608060405234801561001057600080fd5b506004361061012c5760003560e01c806370a08231116100ad578063a457c2d711610071578063a457c2d714610258578063a9059cbb1461026b578063dd62ed3e1461027e578063e43252d714610291578063f2fde38b146102a45761012c565b806370a082311461020d578063715018a6146102205780638ab1d681146102285780638da5cb5b1461023b57806395d89b41146102505761012c565b8063313ce567116100f4578063313ce567146101aa57806339509351146101bf5780633af32abf146101d257806340c10f19146101e557806370480275146101fa5761012c565b806306fdde0314610131578063095ea7b31461014f57806318160ddd1461016f57806323b872dd1461018457806324d7806c14610197575b600080fd5b6101396102b7565b6040516101469190610c0c565b60405180910390f35b61016261015d366004610bc4565b610349565b6040516101469190610c01565b610177610366565b6040516101469190610f10565b610162610192366004610b89565b61036c565b6101626101a5366004610b36565b6103d7565b6101b26103fe565b6040516101469190610f19565b6101626101cd366004610bc4565b610403565b6101626101e0366004610b36565b610452565b6101f86101f3366004610bc4565b610475565b005b6101f8610208366004610b36565b6104c2565b61017761021b366004610b36565b61052d565b6101f8610548565b6101f8610236366004610b36565b6105d1565b610243610639565b6040516101469190610bed565b610139610648565b610162610266366004610bc4565b610657565b610162610279366004610bc4565b6106c8565b61017761028c366004610b57565b610723565b6101f861029f366004610b36565b61074e565b6101f86102b2366004610b36565b6107b9565b6060600380546102c690610f56565b80601f01602080910402602001604051908101604052809291908181526020018280546102f290610f56565b801561033f5780601f106103145761010080835404028352916020019161033f565b820191906000526020600020905b81548152906001019060200180831161032257829003601f168201915b5050505050905090565b600061035d61035661087a565b848461087e565b50600192915050565b60025490565b600061037783610452565b61039c5760405162461bcd60e51b815260040161039390610d70565b60405180910390fd5b6103a7848484610932565b6103cd846103b361087a565b846103be8888610723565b6103c89190610f3f565b61087e565b5060019392505050565b6001600160a01b03811660009081526006602052604090205460ff1615156001145b919050565b601290565b600061035d61041061087a565b84846001600061041e61087a565b6001600160a01b03908116825260208083019390935260409182016000908120918b16815292529020546103c89190610f27565b6001600160a01b031660009081526007602052604090205460ff16151560011490565b61047d61087a565b6001600160a01b031661048e610639565b6001600160a01b0316146104b45760405162461bcd60e51b815260040161039390610d9f565b6104be8282610a5a565b5050565b6104ca610639565b6001600160a01b0316336001600160a01b031614806104ed57506104ed336103d7565b6105095760405162461bcd60e51b815260040161039390610dd4565b6001600160a01b03166000908152600660205260409020805460ff19166001179055565b6001600160a01b031660009081526020819052604090205490565b61055061087a565b6001600160a01b0316610561610639565b6001600160a01b0316146105875760405162461bcd60e51b815260040161039390610d9f565b6005546040516000916001600160a01b0316907f8be0079c531659141344cd1fd0a4f28419497f9722a3daafe3b4186f6b6457e0908390a3600580546001600160a01b0319169055565b6105d9610639565b6001600160a01b0316336001600160a01b031614806105fc57506105fc336103d7565b6106185760405162461bcd60e51b815260040161039390610dd4565b6001600160a01b03166000908152600760205260409020805460ff19169055565b6005546001600160a01b031690565b6060600480546102c690610f56565b6000806001600061066661087a565b6001600160a01b03908116825260208083019390935260409182016000908120918816815292529020549050828110156106b25760405162461bcd60e51b815260040161039390610e94565b6103cd6106bd61087a565b856103c88685610f3f565b60006106d2610639565b6001600160a01b0316336001600160a01b031614806106f557506106f583610452565b6107115760405162461bcd60e51b815260040161039390610d70565b61035d61071c61087a565b8484610932565b6001600160a01b03918216600090815260016020908152604080832093909416825291909152205490565b610756610639565b6001600160a01b0316336001600160a01b031614806107795750610779336103d7565b6107955760405162461bcd60e51b815260040161039390610dd4565b6001600160a01b03166000908152600760205260409020805460ff19166001179055565b6107c161087a565b6001600160a01b03166107d2610639565b6001600160a01b0316146107f85760405162461bcd60e51b815260040161039390610d9f565b6001600160a01b03811661081e5760405162461bcd60e51b815260040161039390610ca2565b6005546040516001600160a01b038084169216907f8be0079c531659141344cd1fd0a4f28419497f9722a3daafe3b4186f6b6457e090600090a3600580546001600160a01b0319166001600160a01b0392909216919091179055565b3390565b6001600160a01b0383166108a45760405162461bcd60e51b815260040161039390610e50565b6001600160a01b0382166108ca5760405162461bcd60e51b815260040161039390610ce8565b6001600160a01b0380841660008181526001602090815260408083209487168084529490915290819020849055517f8c5be1e5ebec7d5bd14f71427d1e84f3dd0314c0f7b2291e5b200ac8c7c3b92590610925908590610f10565b60405180910390a3505050565b6001600160a01b0383166109585760405162461bcd60e51b815260040161039390610e0b565b6001600160a01b03821661097e5760405162461bcd60e51b815260040161039390610c5f565b610989838383610b1a565b6001600160a01b038316600090815260208190526040902054818110156109c25760405162461bcd60e51b815260040161039390610d2a565b6109cc8282610f3f565b6001600160a01b038086166000908152602081905260408082209390935590851681529081208054849290610a02908490610f27565b92505081905550826001600160a01b0316846001600160a01b03167fddf252ad1be2c89b69c2b068fc378daa952ba7f163c4a11628f55a4df523b3ef84604051610a4c9190610f10565b60405180910390a350505050565b6001600160a01b038216610a805760405162461bcd60e51b815260040161039390610ed9565b610a8c60008383610b1a565b8060026000828254610a9e9190610f27565b90915550506001600160a01b03821660009081526020819052604081208054839290610acb908490610f27565b90915550506040516001600160a01b038316906000907fddf252ad1be2c89b69c2b068fc378daa952ba7f163c4a11628f55a4df523b3ef90610b0e908590610f10565b60405180910390a35050565b505050565b80356001600160a01b03811681146103f957600080fd5b600060208284031215610b47578081fd5b610b5082610b1f565b9392505050565b60008060408385031215610b69578081fd5b610b7283610b1f565b9150610b8060208401610b1f565b90509250929050565b600080600060608486031215610b9d578081fd5b610ba684610b1f565b9250610bb460208501610b1f565b9150604084013590509250925092565b60008060408385031215610bd6578182fd5b610bdf83610b1f565b946020939093013593505050565b6001600160a01b0391909116815260200190565b901515815260200190565b6000602080835283518082850152825b81811015610c3857858101830151858201604001528201610c1c565b81811115610c495783604083870101525b50601f01601f1916929092016040019392505050565b60208082526023908201527f45524332303a207472616e7366657220746f20746865207a65726f206164647260408201526265737360e81b606082015260800190565b60208082526026908201527f4f776e61626c653a206e6577206f776e657220697320746865207a65726f206160408201526564647265737360d01b606082015260800190565b60208082526022908201527f45524332303a20617070726f766520746f20746865207a65726f206164647265604082015261737360f01b606082015260800190565b60208082526026908201527f45524332303a207472616e7366657220616d6f756e7420657863656564732062604082015265616c616e636560d01b606082015260800190565b6020808252601590820152742ab730baba3437b934bd32b2103a3930b739b332b960591b604082015260600190565b6020808252818101527f4f776e61626c653a2063616c6c6572206973206e6f7420746865206f776e6572604082015260600190565b60208082526018908201527f496e73756666696369656e74205065726d697373696f6e730000000000000000604082015260600190565b60208082526025908201527f45524332303a207472616e736665722066726f6d20746865207a65726f206164604082015264647265737360d81b606082015260800190565b60208082526024908201527f45524332303a20617070726f76652066726f6d20746865207a65726f206164646040820152637265737360e01b606082015260800190565b60208082526025908201527f45524332303a2064656372656173656420616c6c6f77616e63652062656c6f77604082015264207a65726f60d81b606082015260800190565b6020808252601f908201527f45524332303a206d696e7420746f20746865207a65726f206164647265737300604082015260600190565b90815260200190565b60ff91909116815260200190565b60008219821115610f3a57610f3a610f91565b500190565b600082821015610f5157610f51610f91565b500390565b600281046001821680610f6a57607f821691505b60208210811415610f8b57634e487b7160e01b600052602260045260246000fd5b50919050565b634e487b7160e01b600052601160045260246000fdfea264697066735822122010bd447a08cc9969990b68b01b632f9a9c4f78bcc37fe72b5310a3eaa286c20064736f6c63430008000033",
  "immutableReferences": {},
  "source": "// SPDX-License-Identifier: MIT\n\nimport '@openzeppelin/contracts/utils/Context.sol';\nimport '@openzeppelin/contracts/token/ERC20/ERC20.sol';\nimport '@openzeppelin/contracts/access/Ownable.sol';\n\npragma solidity ^0.8.0;\n\ncontract sMeToken is ERC20(\"sMe Token\", \"SME\"), Ownable {\n    mapping(address => bool) private admin;\n    mapping(address => bool) private whitelist;\n    uint8 private _decimals;\n    uint256 private _totalSupply;\n    \n    constructor (uint256 totalSupply_) {\n        _totalSupply = totalSupply_;\n        _decimals = 18;\n    }\n\n    // OWNER | SME OWNER MINTS\n    function mint(address _to, uint256 _amount) public onlyOwner {\n        _mint(_to, _amount);\n    }\n\n    // PERMISSIONS | ADMINS (OR OWNER) MAY ADD/REMOVE WHITELIST + ADMINS\n\n    // VERIFY | ADMIN\n    function isAdmin(address check) public view returns (bool) {\n        return admin[check] == true;\n    }\n\n    // ADD | ADMIN\n    function addAdmin(address newAdmin) public {\n        require(msg.sender == owner() || isAdmin(msg.sender), \"Insufficient Permissions\");\n        admin[newAdmin] = true;\n    }\n\n    // VERIFY | ADDRESS WHITELISTED\n    function isWhitelisted(address check) public view returns (bool) {\n        return whitelist[check] == true;\n    }\n\n    // ADD | CONTRACT WHITELIST\n    function addToWhitelist(address newContract) public {\n        require(msg.sender == owner() || isAdmin(msg.sender), \"Insufficient Permissions\");\n        whitelist[newContract] = true;\n    }\n\n    // REMOVE | CONTRACT WHITELIST\n    function removeFromWhitelist(address oldContract) public {\n        require(msg.sender == owner() || isAdmin(msg.sender), \"Insufficient Permissions\");\n        whitelist[oldContract] = false;\n    }\n\n    // OVERRIDE | TRANSFER UNAUTHORIZED\n    function transfer(address recipient, uint256 amount) public override returns (bool) {\n        require(msg.sender == owner() || isWhitelisted(recipient), \"Unauthorized transfer\");\n        _transfer(_msgSender(), recipient, amount);\n        return true;\n    }\n\n    // OVERRIDE | TRANSFER FROM UNAUTHORIZED\n    function transferFrom(address sender, address recipient, uint256 amount) public override returns (bool) {\n        require(isWhitelisted(recipient), \"Unauthorized transfer\");\n        _transfer(sender, recipient, amount);\n        _approve(sender, _msgSender(), allowance(sender, recipient) - amount);\n        return true;\n    }\n}",
  "sourcePath": "/Users/Uni/Documents/GitHub/meTokens/meTokens-erc20/contracts/sMeToken.sol",
  "compiler": {
    "name": "solc",
    "version": "0.8.0+commit.c7dfd78e.Emscripten.clang"
  },
  "schemaVersion": "3.3.4",
  "updatedAt": "2021-04-21T14:09:24.070Z",
  "networkType": "ethereum",
  "devdoc": {
    "kind": "dev",
    "methods": {
      "allowance(address,address)": {
        "details": "See {IERC20-allowance}."
      },
      "approve(address,uint256)": {
        "details": "See {IERC20-approve}. Requirements: - `spender` cannot be the zero address."
      },
      "balanceOf(address)": {
        "details": "See {IERC20-balanceOf}."
      },
      "decimals()": {
        "details": "Returns the number of decimals used to get its user representation. For example, if `decimals` equals `2`, a balance of `505` tokens should be displayed to a user as `5,05` (`505 / 10 ** 2`). Tokens usually opt for a value of 18, imitating the relationship between Ether and Wei. This is the value {ERC20} uses, unless this function is overloaded; NOTE: This information is only used for _display_ purposes: it in no way affects any of the arithmetic of the contract, including {IERC20-balanceOf} and {IERC20-transfer}."
      },
      "decreaseAllowance(address,uint256)": {
        "details": "Atomically decreases the allowance granted to `spender` by the caller. This is an alternative to {approve} that can be used as a mitigation for problems described in {IERC20-approve}. Emits an {Approval} event indicating the updated allowance. Requirements: - `spender` cannot be the zero address. - `spender` must have allowance for the caller of at least `subtractedValue`."
      },
      "increaseAllowance(address,uint256)": {
        "details": "Atomically increases the allowance granted to `spender` by the caller. This is an alternative to {approve} that can be used as a mitigation for problems described in {IERC20-approve}. Emits an {Approval} event indicating the updated allowance. Requirements: - `spender` cannot be the zero address."
      },
      "name()": {
        "details": "Returns the name of the token."
      },
      "owner()": {
        "details": "Returns the address of the current owner."
      },
      "renounceOwnership()": {
        "details": "Leaves the contract without owner. It will not be possible to call `onlyOwner` functions anymore. Can only be called by the current owner. NOTE: Renouncing ownership will leave the contract without an owner, thereby removing any functionality that is only available to the owner."
      },
      "symbol()": {
        "details": "Returns the symbol of the token, usually a shorter version of the name."
      },
      "totalSupply()": {
        "details": "See {IERC20-totalSupply}."
      },
      "transfer(address,uint256)": {
        "details": "See {IERC20-transfer}. Requirements: - `recipient` cannot be the zero address. - the caller must have a balance of at least `amount`."
      },
      "transferFrom(address,address,uint256)": {
        "details": "See {IERC20-transferFrom}. Emits an {Approval} event indicating the updated allowance. This is not required by the EIP. See the note at the beginning of {ERC20}. Requirements: - `sender` and `recipient` cannot be the zero address. - `sender` must have a balance of at least `amount`. - the caller must have allowance for ``sender``'s tokens of at least `amount`."
      },
      "transferOwnership(address)": {
        "details": "Transfers ownership of the contract to a new account (`newOwner`). Can only be called by the current owner."
      }
    },
    "version": 1
  },
  "userdoc": {
    "kind": "user",
    "methods": {},
    "version": 1
  }
}