{
  "contractName": "SwapContract",
  "abi": [
    {
      "inputs": [
        {
          "internalType": "address",
          "name": "_synthetic",
          "type": "address"
        },
        {
          "internalType": "address",
          "name": "_authentic",
          "type": "address"
        },
        {
          "internalType": "uint256",
          "name": "_synTotal",
          "type": "uint256"
        },
        {
          "internalType": "uint256",
          "name": "_authTotal",
          "type": "uint256"
        }
      ],
      "stateMutability": "nonpayable",
      "type": "constructor"
    },
    {
      "anonymous": false,
      "inputs": [
        {
          "indexed": true,
          "internalType": "address",
          "name": "previousOwner",
          "type": "address"
        },
        {
          "indexed": true,
          "internalType": "address",
          "name": "newOwner",
          "type": "address"
        }
      ],
      "name": "OwnershipTransferred",
      "type": "event"
    },
    {
      "inputs": [],
      "name": "authTotal",
      "outputs": [
        {
          "internalType": "uint256",
          "name": "",
          "type": "uint256"
        }
      ],
      "stateMutability": "view",
      "type": "function",
      "constant": true
    },
    {
      "inputs": [],
      "name": "authentic",
      "outputs": [
        {
          "internalType": "address",
          "name": "",
          "type": "address"
        }
      ],
      "stateMutability": "view",
      "type": "function",
      "constant": true
    },
    {
      "inputs": [],
      "name": "isInitiated",
      "outputs": [
        {
          "internalType": "bool",
          "name": "",
          "type": "bool"
        }
      ],
      "stateMutability": "view",
      "type": "function",
      "constant": true
    },
    {
      "inputs": [],
      "name": "owner",
      "outputs": [
        {
          "internalType": "address",
          "name": "",
          "type": "address"
        }
      ],
      "stateMutability": "view",
      "type": "function",
      "constant": true
    },
    {
      "inputs": [],
      "name": "renounceOwnership",
      "outputs": [],
      "stateMutability": "nonpayable",
      "type": "function"
    },
    {
      "inputs": [
        {
          "internalType": "uint256",
          "name": "",
          "type": "uint256"
        }
      ],
      "name": "swapUsers",
      "outputs": [
        {
          "internalType": "address",
          "name": "",
          "type": "address"
        }
      ],
      "stateMutability": "view",
      "type": "function",
      "constant": true
    },
    {
      "inputs": [
        {
          "internalType": "address",
          "name": "",
          "type": "address"
        }
      ],
      "name": "swappedAmount",
      "outputs": [
        {
          "internalType": "uint256",
          "name": "",
          "type": "uint256"
        }
      ],
      "stateMutability": "view",
      "type": "function",
      "constant": true
    },
    {
      "inputs": [],
      "name": "synTotal",
      "outputs": [
        {
          "internalType": "uint256",
          "name": "",
          "type": "uint256"
        }
      ],
      "stateMutability": "view",
      "type": "function",
      "constant": true
    },
    {
      "inputs": [],
      "name": "synthetic",
      "outputs": [
        {
          "internalType": "address",
          "name": "",
          "type": "address"
        }
      ],
      "stateMutability": "view",
      "type": "function",
      "constant": true
    },
    {
      "inputs": [
        {
          "internalType": "address",
          "name": "newOwner",
          "type": "address"
        }
      ],
      "name": "transferOwnership",
      "outputs": [],
      "stateMutability": "nonpayable",
      "type": "function"
    },
    {
      "inputs": [
        {
          "internalType": "uint256",
          "name": "_amount",
          "type": "uint256"
        }
      ],
      "name": "swap",
      "outputs": [],
      "stateMutability": "nonpayable",
      "type": "function"
    },
    {
      "inputs": [],
      "name": "initiateSwap",
      "outputs": [],
      "stateMutability": "nonpayable",
      "type": "function"
    },
    {
      "inputs": [
        {
          "internalType": "address",
          "name": "_token",
          "type": "address"
        },
        {
          "internalType": "address",
          "name": "_to",
          "type": "address"
        },
        {
          "internalType": "uint256",
          "name": "_amount",
          "type": "uint256"
        }
      ],
      "name": "withdrawTokens",
      "outputs": [],
      "stateMutability": "nonpayable",
      "type": "function"
    },
    {
      "inputs": [
        {
          "internalType": "uint256",
          "name": "_amount",
          "type": "uint256"
        }
      ],
      "name": "calculateTokens",
      "outputs": [
        {
          "internalType": "uint256",
          "name": "",
          "type": "uint256"
        }
      ],
      "stateMutability": "view",
      "type": "function",
      "constant": true
    }
  ],
  "bytecode": "0x60806040526007805460ff1916905534801561001a57600080fd5b50604051610c11380380610c11833981016040819052610039916100eb565b60006100436100cb565b600080546001600160a01b0319166001600160a01b0383169081178255604051929350917f8be0079c531659141344cd1fd0a4f28419497f9722a3daafe3b4186f6b6457e0908290a350600180546001600160a01b039586166001600160a01b031991821617909155600280549490951693169290921790925560039190915560045561012d565b3390565b80516001600160a01b03811681146100e657600080fd5b919050565b60008060008060808587031215610100578384fd5b610109856100cf565b9350610117602086016100cf565b6040860151606090960151949790965092505050565b610ad58061013c6000396000f3fe608060405234801561001057600080fd5b50600436106100ea5760003560e01c806371aa60fd1161008c578063afe1f9a411610066578063afe1f9a4146101a8578063db95041e146101b0578063f2fde38b146101b8578063f8a17f98146101cb576100ea565b806371aa60fd1461017a5780638da5cb5b1461018d57806394b918de14610195576100ea565b80632da754fc116100c85780632da754fc146101355780634664c942146101555780635e35359e1461015d578063715018a614610172576100ea565b806301048eee146100ef5780630d982ad91461010d5780631cb5991414610120575b600080fd5b6100f76101d3565b6040516101049190610a29565b60405180910390f35b6100f761011b3660046107dc565b6101d9565b6101286101eb565b60405161010491906108d9565b610148610143366004610858565b6101f4565b6040516101049190610888565b6100f761021e565b61017061016b3660046107fd565b610224565b005b610170610318565b6100f7610188366004610858565b6103a1565b6101486103c8565b6101706101a3366004610858565b6103d7565b6101486105d0565b6101706105df565b6101706101c63660046107dc565b6106f2565b6101486107b2565b60035481565b60066020526000908152604090205481565b60075460ff1681565b6005818154811061020457600080fd5b6000918252602090912001546001600160a01b0316905081565b60045481565b61022c6107c1565b6001600160a01b031661023d6103c8565b6001600160a01b03161461026c5760405162461bcd60e51b815260040161026390610961565b60405180910390fd5b60075460ff161561028f5760405162461bcd60e51b815260040161026390610996565b60405163a9059cbb60e01b815283906001600160a01b0382169063a9059cbb906102bf90869086906004016108c0565b602060405180830381600087803b1580156102d957600080fd5b505af11580156102ed573d6000803e3d6000fd5b505050506040513d601f19601f820116820180604052508101906103119190610838565b5050505050565b6103206107c1565b6001600160a01b03166103316103c8565b6001600160a01b0316146103575760405162461bcd60e51b815260040161026390610961565b600080546040516001600160a01b03909116907f8be0079c531659141344cd1fd0a4f28419497f9722a3daafe3b4186f6b6457e0908390a3600080546001600160a01b0319169055565b600080600354600454846103b59190610a6a565b6103bf9190610a4a565b9150505b919050565b6000546001600160a01b031690565b600081116103f75760405162461bcd60e51b8152600401610263906109c6565b60075460ff16151560011461041e5760405162461bcd60e51b8152600401610263906109f2565b6001546040516323b872dd60e01b81526001600160a01b03909116906323b872dd9061045490339061dead90869060040161089c565b602060405180830381600087803b15801561046e57600080fd5b505af1158015610482573d6000803e3d6000fd5b505050506040513d601f19601f820116820180604052508101906104a69190610838565b506000600354600454836104ba9190610a6a565b6104c49190610a4a565b60025460405163a9059cbb60e01b81529192506001600160a01b03169063a9059cbb906104f790339085906004016108c0565b602060405180830381600087803b15801561051157600080fd5b505af1158015610525573d6000803e3d6000fd5b505050506040513d601f19601f820116820180604052508101906105499190610838565b50336000908152600660205260409020546105a157600580546001810182556000919091527f036b6384b5eca791c62761152d0c79bb0604c104a5fb6f4eb0703f3154bb3db00180546001600160a01b031916331790555b336000908152600660205260409020546105bc908290610a32565b336000908152600660205260409020555050565b6001546001600160a01b031681565b6105e76107c1565b6001600160a01b03166105f86103c8565b6001600160a01b03161461061e5760405162461bcd60e51b815260040161026390610961565b600480546002546040516370a0823160e01b815291926001600160a01b03909116916370a082319161065291309101610888565b60206040518083038186803b15801561066a57600080fd5b505afa15801561067e573d6000803e3d6000fd5b505050506040513d601f19601f820116820180604052508101906106a29190610870565b10156106c05760405162461bcd60e51b8152600401610263906108e4565b60075460ff16156106e35760405162461bcd60e51b815260040161026390610996565b6007805460ff19166001179055565b6106fa6107c1565b6001600160a01b031661070b6103c8565b6001600160a01b0316146107315760405162461bcd60e51b815260040161026390610961565b6001600160a01b0381166107575760405162461bcd60e51b81526004016102639061091b565b600080546040516001600160a01b03808516939216917f8be0079c531659141344cd1fd0a4f28419497f9722a3daafe3b4186f6b6457e091a3600080546001600160a01b0319166001600160a01b0392909216919091179055565b6002546001600160a01b031681565b3390565b80356001600160a01b03811681146103c357600080fd5b6000602082840312156107ed578081fd5b6107f6826107c5565b9392505050565b600080600060608486031215610811578182fd5b61081a846107c5565b9250610828602085016107c5565b9150604084013590509250925092565b600060208284031215610849578081fd5b815180151581146107f6578182fd5b600060208284031215610869578081fd5b5035919050565b600060208284031215610881578081fd5b5051919050565b6001600160a01b0391909116815260200190565b6001600160a01b039384168152919092166020820152604081019190915260600190565b6001600160a01b03929092168252602082015260400190565b901515815260200190565b6020808252601c908201527f54617267657420746f6b656e2062616c616e636520746f6f206c6f7700000000604082015260600190565b60208082526026908201527f4f776e61626c653a206e6577206f776e657220697320746865207a65726f206160408201526564647265737360d01b606082015260800190565b6020808252818101527f4f776e61626c653a2063616c6c6572206973206e6f7420746865206f776e6572604082015260600190565b60208082526016908201527514ddd85c08185b1c9958591e481a5b9a5d1a585d195960521b604082015260600190565b6020808252601290820152710616d6f756e742063616e6e6f7420626520360741b604082015260600190565b60208082526018908201527f5377617020686173206e6f742073746172746564207965740000000000000000604082015260600190565b90815260200190565b60008219821115610a4557610a45610a89565b500190565b600082610a6557634e487b7160e01b81526012600452602481fd5b500490565b6000816000190483118215151615610a8457610a84610a89565b500290565b634e487b7160e01b600052601160045260246000fdfea26469706673582212204658e1d18abbcb203b2388e03a4adb4e2758924fae13021d30c3d356e85eb41b64736f6c63430008000033",
  "immutableReferences": {},
  "source": "//SPDX-License-Identifier: MIT\n\npragma solidity ^0.8.0;\n\nimport \"@openzeppelin/contracts/token/ERC20/IERC20.sol\";\nimport \"@openzeppelin/contracts/utils/Context.sol\";\nimport \"@openzeppelin/contracts/access/Ownable.sol\";\n\n\ncontract SwapContract is Ownable {\n    \n    address public synthetic;\n    address public authentic;\n    \n    uint256 public synTotal;\n    uint256 public authTotal;\n    \n    address[] public swapUsers;\n    mapping(address => uint256) public swappedAmount;\n    \n    bool public isInitiated = false;\n\n    constructor(address _synthetic, address _authentic, uint256 _synTotal, uint256 _authTotal) {\n        synthetic = _synthetic;\n        authentic = _authentic;\n        synTotal = _synTotal;\n        authTotal = _authTotal;\n    }\n   \n    function swap(uint256 _amount) public {\n        require(_amount > 0, \"amount cannot be 0\");\n        require(isInitiated == true, \"Swap has not started yet\");\n        \n        IERC20(synthetic).transferFrom(msg.sender, address(0x000000000000000000000000000000000000dEaD), _amount);\n        \n        uint256 finalAmount = _amount * authTotal / synTotal;\n        IERC20(authentic).transfer(msg.sender, finalAmount);\n        \n        if(swappedAmount[msg.sender] <= 0) {\n            swapUsers.push(msg.sender);\n        }\n\n        swappedAmount[msg.sender] = swappedAmount[msg.sender] + finalAmount;\n    }\n    \n    function initiateSwap() public onlyOwner {\n        require(IERC20(authentic).balanceOf(address(this)) >= authTotal, \"Target token balance too low\");\n        require(isInitiated == false, \"Swap already initiated\");\n        isInitiated = true;\n    }\n    \n    function withdrawTokens(address _token, address _to, uint256 _amount) public onlyOwner {\n        require(isInitiated == false, \"Swap already initiated\");\n        IERC20 token = IERC20(_token);\n        token.transfer(_to, _amount);\n    }\n    \n    function calculateTokens(uint256 _amount) public view returns(uint256) {\n        uint256 receiveAmount = _amount * (authTotal) / (synTotal);\n        return receiveAmount;\n    }\n   \n}",
  "sourcePath": "/Users/Uni/Documents/GitHub/meTokens/meTokens-erc20/contracts/SwapContract.sol",
  "compiler": {
    "name": "solc",
    "version": "0.8.0+commit.c7dfd78e.Emscripten.clang"
  },
  "schemaVersion": "3.3.4",
  "updatedAt": "2021-04-21T14:09:24.075Z",
  "networkType": "ethereum",
  "devdoc": {
    "kind": "dev",
    "methods": {
      "owner()": {
        "details": "Returns the address of the current owner."
      },
      "renounceOwnership()": {
        "details": "Leaves the contract without owner. It will not be possible to call `onlyOwner` functions anymore. Can only be called by the current owner. NOTE: Renouncing ownership will leave the contract without an owner, thereby removing any functionality that is only available to the owner."
      },
      "transferOwnership(address)": {
        "details": "Transfers ownership of the contract to a new account (`newOwner`). Can only be called by the current owner."
      }
    },
    "version": 1
  },
  "userdoc": {
    "kind": "user",
    "methods": {},
    "version": 1
  }
}